{
  "contractName": "ContractDetail",
  "abi": [
    {
      "anonymous": false,
      "inputs": [
        {
          "indexed": false,
          "name": "PledgeFee",
          "type": "uint256"
        }
      ],
      "name": "test",
      "type": "event"
    },
    {
      "anonymous": false,
      "inputs": [
        {
          "indexed": false,
          "name": "useraddress",
          "type": "address"
        },
        {
          "indexed": false,
          "name": "status",
          "type": "uint8"
        },
        {
          "indexed": false,
          "name": "isture",
          "type": "bool"
        },
        {
          "indexed": false,
          "name": "output",
          "type": "string"
        }
      ],
      "name": "ContractStatusEvent",
      "type": "event"
    },
    {
      "anonymous": false,
      "inputs": [
        {
          "indexed": false,
          "name": "useraddress",
          "type": "address"
        },
        {
          "indexed": false,
          "name": "status",
          "type": "uint8"
        },
        {
          "indexed": false,
          "name": "isture",
          "type": "bool"
        },
        {
          "indexed": false,
          "name": "output",
          "type": "string"
        }
      ],
      "name": "PledgeWithdrawalStatusEvent",
      "type": "event"
    },
    {
      "anonymous": false,
      "inputs": [
        {
          "indexed": false,
          "name": "useraddress",
          "type": "address"
        },
        {
          "indexed": false,
          "name": "activefee",
          "type": "uint256"
        },
        {
          "indexed": false,
          "name": "isture",
          "type": "bool"
        },
        {
          "indexed": false,
          "name": "output",
          "type": "string"
        }
      ],
      "name": "ActiveWithdrawlEvent",
      "type": "event"
    },
    {
      "anonymous": false,
      "inputs": [
        {
          "indexed": false,
          "name": "w",
          "type": "uint256"
        },
        {
          "indexed": false,
          "name": "e",
          "type": "uint256"
        }
      ],
      "name": "test3",
      "type": "event"
    },
    {
      "anonymous": false,
      "inputs": [
        {
          "indexed": false,
          "name": "stage",
          "type": "uint256"
        },
        {
          "indexed": false,
          "name": "rentFeeTotal",
          "type": "uint256"
        },
        {
          "indexed": false,
          "name": "wfee",
          "type": "uint256"
        },
        {
          "indexed": false,
          "name": "efee",
          "type": "uint256"
        },
        {
          "indexed": false,
          "name": "wmeter",
          "type": "uint256"
        },
        {
          "indexed": false,
          "name": "emeter",
          "type": "uint256"
        }
      ],
      "name": "test2",
      "type": "event"
    },
    {
      "anonymous": false,
      "inputs": [
        {
          "indexed": false,
          "name": "total",
          "type": "uint256"
        },
        {
          "indexed": false,
          "name": "wfee",
          "type": "uint256"
        },
        {
          "indexed": false,
          "name": "efee",
          "type": "uint256"
        }
      ],
      "name": "test4",
      "type": "event"
    },
    {
      "constant": true,
      "inputs": [],
      "name": "getInfo",
      "outputs": [
        {
          "name": "",
          "type": "uint256"
        },
        {
          "name": "",
          "type": "uint256"
        },
        {
          "name": "",
          "type": "uint256"
        },
        {
          "name": "",
          "type": "uint256"
        },
        {
          "name": "",
          "type": "uint256"
        },
        {
          "name": "",
          "type": "uint256"
        },
        {
          "name": "",
          "type": "uint256"
        },
        {
          "name": "",
          "type": "uint256"
        },
        {
          "name": "",
          "type": "uint256"
        },
        {
          "name": "",
          "type": "address"
        },
        {
          "name": "",
          "type": "address"
        },
        {
          "name": "",
          "type": "bytes"
        }
      ],
      "payable": false,
      "stateMutability": "view",
      "type": "function"
    },
    {
      "constant": true,
      "inputs": [],
      "name": "getInfo2",
      "outputs": [
        {
          "name": "",
          "type": "uint256"
        },
        {
          "name": "",
          "type": "uint256"
        },
        {
          "name": "",
          "type": "uint256"
        },
        {
          "name": "",
          "type": "uint256"
        },
        {
          "name": "",
          "type": "uint256"
        },
        {
          "name": "",
          "type": "uint256"
        },
        {
          "name": "",
          "type": "uint256"
        }
      ],
      "payable": false,
      "stateMutability": "view",
      "type": "function"
    },
    {
      "constant": true,
      "inputs": [],
      "name": "getStatusList",
      "outputs": [
        {
          "name": "",
          "type": "uint8"
        },
        {
          "name": "",
          "type": "uint8"
        },
        {
          "name": "",
          "type": "uint8"
        }
      ],
      "payable": false,
      "stateMutability": "view",
      "type": "function"
    },
    {
      "constant": false,
      "inputs": [
        {
          "name": "_warterFee",
          "type": "uint256"
        },
        {
          "name": "_electricityFee",
          "type": "uint256"
        },
        {
          "name": "_waterMeter",
          "type": "uint256"
        },
        {
          "name": "_electricityMeter",
          "type": "uint256"
        },
        {
          "name": "_rentFee",
          "type": "uint256"
        },
        {
          "name": "_rentTime",
          "type": "uint256"
        },
        {
          "name": "_startTime",
          "type": "uint256"
        },
        {
          "name": "_endTime",
          "type": "uint256"
        },
        {
          "name": "_PledgeFee",
          "type": "uint256"
        },
        {
          "name": "_tenantPublickey",
          "type": "address"
        },
        {
          "name": "_ownerPublickey",
          "type": "address"
        },
        {
          "name": "_addInfo",
          "type": "bytes"
        }
      ],
      "name": "addHouseInfo",
      "outputs": [],
      "payable": false,
      "stateMutability": "nonpayable",
      "type": "function"
    },
    {
      "constant": false,
      "inputs": [],
      "name": "activeContract",
      "outputs": [],
      "payable": true,
      "stateMutability": "payable",
      "type": "function"
    },
    {
      "constant": false,
      "inputs": [],
      "name": "signtureContract",
      "outputs": [],
      "payable": true,
      "stateMutability": "payable",
      "type": "function"
    },
    {
      "constant": false,
      "inputs": [],
      "name": "payPledge",
      "outputs": [],
      "payable": true,
      "stateMutability": "payable",
      "type": "function"
    },
    {
      "constant": true,
      "inputs": [],
      "name": "getInfo3",
      "outputs": [
        {
          "name": "",
          "type": "uint256"
        },
        {
          "name": "",
          "type": "uint256"
        }
      ],
      "payable": false,
      "stateMutability": "view",
      "type": "function"
    },
    {
      "constant": false,
      "inputs": [
        {
          "name": "_stage",
          "type": "uint256"
        },
        {
          "name": "_currentWaterMeter",
          "type": "uint256"
        },
        {
          "name": "_cureentElectricityMeter",
          "type": "uint256"
        }
      ],
      "name": "generateMeter",
      "outputs": [],
      "payable": false,
      "stateMutability": "nonpayable",
      "type": "function"
    },
    {
      "constant": false,
      "inputs": [
        {
          "name": "b",
          "type": "uint256"
        },
        {
          "name": "c",
          "type": "uint256"
        }
      ],
      "name": "setMeter",
      "outputs": [],
      "payable": false,
      "stateMutability": "nonpayable",
      "type": "function"
    },
    {
      "constant": false,
      "inputs": [],
      "name": "payRent",
      "outputs": [],
      "payable": true,
      "stateMutability": "payable",
      "type": "function"
    },
    {
      "constant": false,
      "inputs": [],
      "name": "completeRentFee",
      "outputs": [],
      "payable": false,
      "stateMutability": "nonpayable",
      "type": "function"
    },
    {
      "constant": false,
      "inputs": [
        {
          "name": "_amount",
          "type": "uint256"
        }
      ],
      "name": "judgeWithDrawalPledge",
      "outputs": [],
      "payable": false,
      "stateMutability": "nonpayable",
      "type": "function"
    },
    {
      "constant": false,
      "inputs": [
        {
          "name": "_agree",
          "type": "uint256"
        }
      ],
      "name": "isAgree",
      "outputs": [],
      "payable": false,
      "stateMutability": "nonpayable",
      "type": "function"
    },
    {
      "constant": false,
      "inputs": [],
      "name": "withdrawActiveFee",
      "outputs": [],
      "payable": true,
      "stateMutability": "payable",
      "type": "function"
    }
  ],
  "bytecode": "0x608060405234801561001057600080fd5b50613088806100206000396000f3fe6080604052600436106100e85760003560e01c8063895a74491161008a578063a709c4fe11610059578063a709c4fe1461050a578063b75fe1f214610514578063be84f94414610563578063de4a0386146105b8576100e8565b8063895a74491461047c5780638c21b6121461048657806398b7a7d31461049d5780639a6cc193146104a7576100e8565b80635a9b0b89116100c65780635a9b0b891461019557806370890a9b146102ca578063792e6e5b1461042d57806386b948f814610437576100e8565b806344102fce146100ed5780634917dfdd1461011f57806349756f921461015a575b600080fd5b3480156100f957600080fd5b506101026105c2565b604051808381526020018281526020019250505060405180910390f35b34801561012b57600080fd5b506101586004803603602081101561014257600080fd5b81019080803590602001909291905050506105d3565b005b34801561016657600080fd5b506101936004803603602081101561017d57600080fd5b81019080803590602001909291905050506108d5565b005b3480156101a157600080fd5b506101aa610e90565b604051808d81526020018c81526020018b81526020018a81526020018981526020018881526020018781526020018681526020018581526020018473ffffffffffffffffffffffffffffffffffffffff1673ffffffffffffffffffffffffffffffffffffffff1681526020018373ffffffffffffffffffffffffffffffffffffffff1673ffffffffffffffffffffffffffffffffffffffff16815260200180602001828103825283818151815260200191508051906020019080838360005b83811015610284578082015181840152602081019050610269565b50505050905090810190601f1680156102b15780820380516001836020036101000a031916815260200191505b509d505050505050505050505050505060405180910390f35b3480156102d657600080fd5b5061042b60048036036101808110156102ee57600080fd5b81019080803590602001909291908035906020019092919080359060200190929190803590602001909291908035906020019092919080359060200190929190803590602001909291908035906020019092919080359060200190929190803573ffffffffffffffffffffffffffffffffffffffff169060200190929190803573ffffffffffffffffffffffffffffffffffffffff169060200190929190803590602001906401000000008111156103a557600080fd5b8201836020820111156103b757600080fd5b803590602001918460018302840111640100000000831117156103d957600080fd5b91908080601f016020809104026020016040519081016040528093929190818152602001838380828437600081840152601f19601f820116905080830192505050505050509192919290505050610fc8565b005b6104356110e3565b005b34801561044357600080fd5b5061047a6004803603604081101561045a57600080fd5b810190808035906020019092919080359060200190929190505050611414565b005b610484611524565b005b34801561049257600080fd5b5061049b611778565b005b6104a5611c21565b005b3480156104b357600080fd5b506104bc61204c565b604051808460058111156104cc57fe5b60ff1681526020018360038111156104e057fe5b60ff1681526020018260038111156104f457fe5b60ff168152602001935050505060405180910390f35b61051261208c565b005b34801561052057600080fd5b506105616004803603606081101561053757600080fd5b81019080803590602001909291908035906020019092919080359060200190929190505050612543565b005b34801561056f57600080fd5b506105786128ea565b6040518088815260200187815260200186815260200185815260200184815260200183815260200182815260200197505050505050505060405180910390f35b6105c0612921565b005b600080600f54600854915091509091565b600a60009054906101000a900473ffffffffffffffffffffffffffffffffffffffff1673ffffffffffffffffffffffffffffffffffffffff163373ffffffffffffffffffffffffffffffffffffffff1614610696576040517f08c379a00000000000000000000000000000000000000000000000000000000081526004018080602001828103825260188152602001807fe58faae69c89e688bfe4b89ce6898de883bde6938de4bd9c000000000000000081525060200191505060405180910390fd5b60048060058111156106a457fe5b600c60009054906101000a900460ff1660058111156106bf57fe5b14610732576040517f08c379a00000000000000000000000000000000000000000000000000000000081526004018080602001828103825260158152602001807fe4b88de7aca6e59088e5bd93e5898de78ab6e68081000000000000000000000081525060200191505060405180910390fd5b600c60029054906101000a900460ff16600381111561074d57fe5b60038081111561075957fe5b14156107cd576040517f08c379a000000000000000000000000000000000000000000000000000000000815260040180806020018281038252601e8152602001807fe8afa5e6938de4bd9ce4b88de7aca6e59088e5bd93e5898de78ab6e68081000081525060200191505060405180910390fd5b81600f5403601381905550816014819055506001600c60026101000a81548160ff021916908360038111156107fe57fe5b02179055507f8734ad07c056f7feceb21115b19f98b21ecd2e075f3ea6945471b30df58010ae33600c60029054906101000a900460ff166001604051808473ffffffffffffffffffffffffffffffffffffffff1673ffffffffffffffffffffffffffffffffffffffff16815260200183600381111561087957fe5b60ff16815260200182151515158152602001806020018281038252601b8152602001807fe4bfaee694b9e78ab6e68081e5be85e7a79fe5aea2e7a1aee8aea4000000000081525060200194505050505060405180910390a15050565b600960009054906101000a900473ffffffffffffffffffffffffffffffffffffffff1673ffffffffffffffffffffffffffffffffffffffff163373ffffffffffffffffffffffffffffffffffffffff1614610998576040517f08c379a00000000000000000000000000000000000000000000000000000000081526004018080602001828103825260188152602001807fe58faae69c89e7a79fe5aea2e6898de883bde6938de4bd9c000000000000000081525060200191505060405180910390fd5b60048060058111156109a657fe5b600c60009054906101000a900460ff1660058111156109c157fe5b14610a34576040517f08c379a00000000000000000000000000000000000000000000000000000000081526004018080602001828103825260158152602001807fe4b88de7aca6e59088e5bd93e5898de78ab6e68081000000000000000000000081525060200191505060405180910390fd5b600c60029054906101000a900460ff166003811115610a4f57fe5b600380811115610a5b57fe5b1415610acf576040517f08c379a000000000000000000000000000000000000000000000000000000000815260040180806020018281038252601e8152602001807fe8afa5e6938de4bd9ce4b88de7aca6e59088e5bd93e5898de78ab6e68081000081525060200191505060405180910390fd5b6002821415610c9d576002600c60026101000a81548160ff02191690836003811115610af757fe5b02179055507f8734ad07c056f7feceb21115b19f98b21ecd2e075f3ea6945471b30df58010ae33600c60029054906101000a900460ff166000604051808473ffffffffffffffffffffffffffffffffffffffff1673ffffffffffffffffffffffffffffffffffffffff168152602001836003811115610b7257fe5b60ff1681526020018215151515815260200180602001828103825260158152602001807fe4b88de68ea5e58f97e98080e59b9ee68abce98791000000000000000000000081525060200194505050505060405180910390a17f9687deedb2ec361db89057dc6a602fb94263d090f6937fd20ef4f4bcf54de65633600c60009054906101000a900460ff166000604051808473ffffffffffffffffffffffffffffffffffffffff1673ffffffffffffffffffffffffffffffffffffffff168152602001836005811115610c4057fe5b60ff1681526020018215151515815260200180602001828103825260158152602001807fe4b88de68ea5e58f97e98080e59b9ee68abce98791000000000000000000000081525060200194505050505060405180910390a1610e8c565b6003821415610e8b576003600c60026101000a81548160ff02191690836003811115610cc557fe5b02179055506005600c60006101000a81548160ff02191690836005811115610ce957fe5b02179055507f8734ad07c056f7feceb21115b19f98b21ecd2e075f3ea6945471b30df58010ae33600c60029054906101000a900460ff166001604051808473ffffffffffffffffffffffffffffffffffffffff1673ffffffffffffffffffffffffffffffffffffffff168152602001836003811115610d6457fe5b60ff1681526020018215151515815260200180602001828103825260138152602001807fe68ea5e58f97e98080e59b9ee68abce98791200000000000000000000000000081525060200194505050505060405180910390a17f9687deedb2ec361db89057dc6a602fb94263d090f6937fd20ef4f4bcf54de65633600c60009054906101000a900460ff166001604051808473ffffffffffffffffffffffffffffffffffffffff1673ffffffffffffffffffffffffffffffffffffffff168152602001836005811115610e3257fe5b60ff1681526020018215151515815260200180602001828103825260128152602001807fe7a79fe8b581e59088e5908ce5ae8ce68890000000000000000000000000000081525060200194505050505060405180910390a15b5b5050565b60008060008060008060008060008060006060600054600154600254600354600454600554600654600754600854600960009054906101000a900473ffffffffffffffffffffffffffffffffffffffff16600a60009054906101000a900473ffffffffffffffffffffffffffffffffffffffff16600b808054600181600116156101000203166002900480601f016020809104026020016040519081016040528092919081815260200182805460018160011615610100020316600290048015610f9b5780601f10610f7057610100808354040283529160200191610f9b565b820191906000526020600020905b815481529060010190602001808311610f7e57829003601f168201915b505050505090509b509b509b509b509b509b509b509b509b509b509b509b50909192939495969798999a9b565b8b6000819055508a6001819055508960028190555088600381905550876004819055508660058190555085600681905550846007819055508360088190555082600960006101000a81548173ffffffffffffffffffffffffffffffffffffffff021916908373ffffffffffffffffffffffffffffffffffffffff16021790555081600a60006101000a81548173ffffffffffffffffffffffffffffffffffffffff021916908373ffffffffffffffffffffffffffffffffffffffff16021790555080600b908051906020019061109f929190612f93565b508760048190556017600c01819055508960176004016001018190555088601760080160010181905550600654601760030181905550505050505050505050505050565b60058060058111156110f157fe5b600c60009054906101000a900460ff16600581111561110c57fe5b1461117f576040517f08c379a00000000000000000000000000000000000000000000000000000000081526004018080602001828103825260158152602001807fe4b88de7aca6e59088e5bd93e5898de78ab6e68081000000000000000000000081525060200191505060405180910390fd5b600a60009054906101000a900473ffffffffffffffffffffffffffffffffffffffff1673ffffffffffffffffffffffffffffffffffffffff163373ffffffffffffffffffffffffffffffffffffffff1614611242576040517f08c379a00000000000000000000000000000000000000000000000000000000081526004018080602001828103825260188152602001807fe58faae69c89e688bfe4b89ce6898de883bde6938de4bd9c000000000000000081525060200191505060405180910390fd5b6000600d549050600081111561140c576000600d819055503373ffffffffffffffffffffffffffffffffffffffff166108fc829081150290604051600060405180830381858888f193505050506113535780600d819055507f71b6fa5229930c333849af892be3258d19330a420ccf0b2c8d2eb7481c094fc733600d546000604051808473ffffffffffffffffffffffffffffffffffffffff1673ffffffffffffffffffffffffffffffffffffffff1681526020018381526020018215151515815260200180602001828103825260188152602001807fe58f96e587bae59088e5908ce4bd99e9a29de5a4b1e8b4a5000000000000000081525060200194505050505060405180910390a150611411565b7f71b6fa5229930c333849af892be3258d19330a420ccf0b2c8d2eb7481c094fc733600d546001604051808473ffffffffffffffffffffffffffffffffffffffff1673ffffffffffffffffffffffffffffffffffffffff1681526020018381526020018215151515815260200180602001828103825260168152602001807fe58f96e587bae59088e5908ce4bd99e68890e58a9f200000000000000000000081525060200194505050505060405180910390a150611411565b600080fd5b50565b60126000815480929190600101919050555061142e612c62565b61143b6012548383612543565b7f7e68ea8c2d3c41ab6aaf540c09f95a8542815968769f8585d9fbc21e46cd97c9601254601660006012548152602001908152602001600020600101546016600060125481526020019081526020016000206004016000015460166000601254815260200190815260200160002060080160000154601660006012548152602001908152602001600020600401600101546016600060125481526020019081526020016000206008016001015460405180878152602001868152602001858152602001848152602001838152602001828152602001965050505050505060405180910390a15050565b600960009054906101000a900473ffffffffffffffffffffffffffffffffffffffff1673ffffffffffffffffffffffffffffffffffffffff163373ffffffffffffffffffffffffffffffffffffffff16146115e7576040517f08c379a00000000000000000000000000000000000000000000000000000000081526004018080602001828103825260188152602001807fe58faae69c89e7a79fe5aea2e6898de883bde6938de4bd9c000000000000000081525060200191505060405180910390fd5b60018060058111156115f557fe5b600c60009054906101000a900460ff16600581111561161057fe5b14611683576040517f08c379a00000000000000000000000000000000000000000000000000000000081526004018080602001828103825260158152602001807fe4b88de7aca6e59088e5bd93e5898de78ab6e68081000000000000000000000081525060200191505060405180910390fd5b6002600c60006101000a81548160ff021916908360058111156116a257fe5b02179055507f9687deedb2ec361db89057dc6a602fb94263d090f6937fd20ef4f4bcf54de65633600c60009054906101000a900460ff166000604051808473ffffffffffffffffffffffffffffffffffffffff1673ffffffffffffffffffffffffffffffffffffffff16815260200183600581111561171d57fe5b60ff16815260200182151515158152602001806020018281038252600c8152602001807fe7adbee5908de68890e58a9f000000000000000000000000000000000000000081525060200194505050505060405180910390a150565b600a60009054906101000a900473ffffffffffffffffffffffffffffffffffffffff1673ffffffffffffffffffffffffffffffffffffffff163373ffffffffffffffffffffffffffffffffffffffff1614806118215750600960009054906101000a900473ffffffffffffffffffffffffffffffffffffffff1673ffffffffffffffffffffffffffffffffffffffff163373ffffffffffffffffffffffffffffffffffffffff16145b611876576040517f08c379a00000000000000000000000000000000000000000000000000000000081526004018080602001828103825260248152602001806130396024913960400191505060405180910390fd5b600380600581111561188457fe5b600c60009054906101000a900460ff16600581111561189f57fe5b14611912576040517f08c379a00000000000000000000000000000000000000000000000000000000081526004018080602001828103825260158152602001807fe4b88de7aca6e59088e5bd93e5898de78ab6e68081000000000000000000000081525060200191505060405180910390fd5b6001600554036012541415611a585760008090505b6012548111611a52576002600381111561193d57fe5b6016600083815260200190815260200160002060000160009054906101000a900460ff16600381111561196c57fe5b14611a45577f9687deedb2ec361db89057dc6a602fb94263d090f6937fd20ef4f4bcf54de65633600c60009054906101000a900460ff166000604051808473ffffffffffffffffffffffffffffffffffffffff1673ffffffffffffffffffffffffffffffffffffffff1681526020018360058111156119e757fe5b60ff1681526020018215151515815260200180602001828103825260178152602001807fe5ad98e59ca8e69caae694afe4bb98e7a79fe98791202000000000000000000081525060200194505050505060405180910390a150611c1e565b8080600101915050611927565b50611b2b565b7f9687deedb2ec361db89057dc6a602fb94263d090f6937fd20ef4f4bcf54de65633600c60009054906101000a900460ff166000604051808473ffffffffffffffffffffffffffffffffffffffff1673ffffffffffffffffffffffffffffffffffffffff168152602001836005811115611ace57fe5b60ff1681526020018215151515815260200180602001828103825260098152602001807fe69caae588b0e69c9f000000000000000000000000000000000000000000000081525060200194505050505060405180910390a1611c1e565b6004600c60006101000a81548160ff02191690836005811115611b4a57fe5b02179055507f9687deedb2ec361db89057dc6a602fb94263d090f6937fd20ef4f4bcf54de65633600c60009054906101000a900460ff166001604051808473ffffffffffffffffffffffffffffffffffffffff1673ffffffffffffffffffffffffffffffffffffffff168152602001836005811115611bc557fe5b60ff1681526020018215151515815260200180602001828103825260068152602001807f66696e697368000000000000000000000000000000000000000000000000000081525060200194505050505060405180910390a15b50565b600960009054906101000a900473ffffffffffffffffffffffffffffffffffffffff1673ffffffffffffffffffffffffffffffffffffffff163373ffffffffffffffffffffffffffffffffffffffff1614611ce4576040517f08c379a00000000000000000000000000000000000000000000000000000000081526004018080602001828103825260188152602001807fe58faae69c89e7a79fe5aea2e6898de883bde6938de4bd9c000000000000000081525060200191505060405180910390fd5b6002806005811115611cf257fe5b600c60009054906101000a900460ff166005811115611d0d57fe5b14611d80576040517f08c379a00000000000000000000000000000000000000000000000000000000081526004018080602001828103825260158152602001807fe4b88de7aca6e59088e5bd93e5898de78ab6e68081000000000000000000000081525060200191505060405180910390fd5b34600f60008282540192505081905550600854600f541115611e6f577f9687deedb2ec361db89057dc6a602fb94263d090f6937fd20ef4f4bcf54de65633600c60009054906101000a900460ff166000604051808473ffffffffffffffffffffffffffffffffffffffff1673ffffffffffffffffffffffffffffffffffffffff168152602001836005811115611e1257fe5b60ff1681526020018215151515815260200180602001828103825260138152602001807fe694afe4bb98e68abce98791e8bf87e5a49a200000000000000000000000000081525060200194505050505060405180910390a1612049565b600854600f541415611f7a576003600c60006101000a81548160ff02191690836005811115611e9a57fe5b0217905550611ea7612c62565b7f9687deedb2ec361db89057dc6a602fb94263d090f6937fd20ef4f4bcf54de65633600c60009054906101000a900460ff166001604051808473ffffffffffffffffffffffffffffffffffffffff1673ffffffffffffffffffffffffffffffffffffffff168152602001836005811115611f1d57fe5b60ff1681526020018215151515815260200180602001828103825260108152602001807fe5b7b2e694afe4bb98e68abce98791200000000000000000000000000000000081525060200194505050505060405180910390a1612049565b7f9687deedb2ec361db89057dc6a602fb94263d090f6937fd20ef4f4bcf54de65633600c60009054906101000a900460ff166000604051808473ffffffffffffffffffffffffffffffffffffffff1673ffffffffffffffffffffffffffffffffffffffff168152602001836005811115611ff057fe5b60ff1681526020018215151515815260200180602001828103825260138152602001807fe694afe4bb98e68abce98791e8bf87e5b091200000000000000000000000000081525060200194505050505060405180910390a15b50565b6000806000600c60009054906101000a900460ff16600c60019054906101000a900460ff16600c60029054906101000a900460ff16925092509250909192565b600960009054906101000a900473ffffffffffffffffffffffffffffffffffffffff1673ffffffffffffffffffffffffffffffffffffffff163373ffffffffffffffffffffffffffffffffffffffff161461214f576040517f08c379a00000000000000000000000000000000000000000000000000000000081526004018080602001828103825260188152602001807fe58faae69c89e7a79fe5aea2e6898de883bde6938de4bd9c000000000000000081525060200191505060405180910390fd5b600380600581111561215d57fe5b600c60009054906101000a900460ff16600581111561217857fe5b146121eb576040517f08c379a00000000000000000000000000000000000000000000000000000000081526004018080602001828103825260158152602001807fe4b88de7aca6e59088e5bd93e5898de78ab6e68081000000000000000000000081525060200191505060405180910390fd5b60006012549050346011819055507f01da4a4e855541f8b5940a422607cdeced915fa9057356292f09b5149e4567276011546016600084815260200190815260200160002060010154604051808381526020018281526020019250505060405180910390a160166000828152602001908152602001600020600101546011541115612344577f9687deedb2ec361db89057dc6a602fb94263d090f6937fd20ef4f4bcf54de65633600c60009054906101000a900460ff166000604051808473ffffffffffffffffffffffffffffffffffffffff1673ffffffffffffffffffffffffffffffffffffffff1681526020018360058111156122e657fe5b60ff1681526020018215151515815260200180602001828103825260138152602001807fe694afe4bb98e68abce98791e8bf87e5a49a200000000000000000000000000081525060200194505050505060405180910390a150612540565b601660008281526020019081526020016000206001015460115414156124705760026016600083815260200190815260200160002060000160006101000a81548160ff0219169083600381111561239757fe5b02179055507f9687deedb2ec361db89057dc6a602fb94263d090f6937fd20ef4f4bcf54de65633600c60009054906101000a900460ff166001604051808473ffffffffffffffffffffffffffffffffffffffff1673ffffffffffffffffffffffffffffffffffffffff16815260200183600581111561241257fe5b60ff1681526020018215151515815260200180602001828103825260108152602001807fe5b7b2e694afe4bb98e68abce98791200000000000000000000000000000000081525060200194505050505060405180910390a150612540565b7f9687deedb2ec361db89057dc6a602fb94263d090f6937fd20ef4f4bcf54de65633600c60009054906101000a900460ff166000604051808473ffffffffffffffffffffffffffffffffffffffff1673ffffffffffffffffffffffffffffffffffffffff1681526020018360058111156124e657fe5b60ff1681526020018215151515815260200180602001828103825260138152602001807fe694afe4bb98e68abce98791e8bf87e5b091200000000000000000000000000081525060200194505050505060405180910390a1505b50565b600a60009054906101000a900473ffffffffffffffffffffffffffffffffffffffff1673ffffffffffffffffffffffffffffffffffffffff163373ffffffffffffffffffffffffffffffffffffffff1614806125ec5750600960009054906101000a900473ffffffffffffffffffffffffffffffffffffffff1673ffffffffffffffffffffffffffffffffffffffff163373ffffffffffffffffffffffffffffffffffffffff16145b612641576040517f08c379a00000000000000000000000000000000000000000000000000000000081526004018080602001828103825260248152602001806130396024913960400191505060405180910390fd5b60006016600085815260200190815260200160002090506000601660006001870381526020019081526020016000209050600081600401905060008260080190506000826001015487039050600082600101548703905087866004016002018190555060005482028660040160000181905550818660040160030181905550868660080160020181905550600154810286600801600001819055508086600801600301819055508786600401600101819055508686600801600101819055507f01da4a4e855541f8b5940a422607cdeced915fa9057356292f09b5149e45672760125482604051808381526020018281526020019250505060405180910390a17f01da4a4e855541f8b5940a422607cdeced915fa9057356292f09b5149e4567278282604051808381526020018281526020019250505060405180910390a17f01da4a4e855541f8b5940a422607cdeced915fa9057356292f09b5149e45672786600801600001548760040160000154604051808381526020018281526020019250505060405180910390a160018660000160006101000a81548160ff021916908360038111156127ee57fe5b021790555085601660008b81526020019081526020016000206000820160009054906101000a900460ff168160000160006101000a81548160ff0219169083600381111561283857fe5b021790555060018201548160010155600282015481600201556003820154816003015560048201816004016000820154816000015560018201548160010155600282015481600201556003820154816003015550506008820181600801600082015481600001556001820154816001015560028201548160020155600382015481600301555050600c82015481600c0155600d82015481600d01559050506128df89612ee4565b505050505050505050565b6000806000806000806000600d54600e54600f54601254601354601454601554965096509650965096509650965090919293949596565b600a60009054906101000a900473ffffffffffffffffffffffffffffffffffffffff1673ffffffffffffffffffffffffffffffffffffffff163373ffffffffffffffffffffffffffffffffffffffff16146129e4576040517f08c379a00000000000000000000000000000000000000000000000000000000081526004018080602001828103825260188152602001807fe58faae69c89e688bfe4b89ce6898de883bde6938de4bd9c000000000000000081525060200191505060405180910390fd5b60008060058111156129f257fe5b600c60009054906101000a900460ff166005811115612a0d57fe5b14612a80576040517f08c379a00000000000000000000000000000000000000000000000000000000081526004018080602001828103825260158152602001807fe4b88de7aca6e59088e5bd93e5898de78ab6e68081000000000000000000000081525060200191505060405180910390fd5b600e543410612b905734600d600082825401925050819055506001600c60006101000a81548160ff02191690836005811115612ab857fe5b02179055507f9687deedb2ec361db89057dc6a602fb94263d090f6937fd20ef4f4bcf54de65633600c60009054906101000a900460ff166001604051808473ffffffffffffffffffffffffffffffffffffffff1673ffffffffffffffffffffffffffffffffffffffff168152602001836005811115612b3357fe5b60ff16815260200182151515158152602001806020018281038252600d8152602001807fe6bf80e6b4bbe68890e58a9f200000000000000000000000000000000000000081525060200194505050505060405180910390a1612c5f565b7f9687deedb2ec361db89057dc6a602fb94263d090f6937fd20ef4f4bcf54de65633600c60009054906101000a900460ff166000604051808473ffffffffffffffffffffffffffffffffffffffff1673ffffffffffffffffffffffffffffffffffffffff168152602001836005811115612c0657fe5b60ff16815260200182151515158152602001806020018281038252600c8152602001807fe6bf80e6b4bbe5a4b1e8b4a5000000000000000000000000000000000000000081525060200194505050505060405180910390a15b50565b60006012541415612d625760176016600060125481526020019081526020016000206000820160009054906101000a900460ff168160000160006101000a81548160ff02191690836003811115612cb557fe5b021790555060018201548160010155600282015481600201556003820154816003015560048201816004016000820154816000015560018201548160010155600282015481600201556003820154816003015550506008820181600801600082015481600001556001820154816001015560028201548160020155600382015481600301555050600c82015481600c0155600d82015481600d0155905050612d5d6000612ee4565b612ee2565b6000601760000160006101000a81548160ff02191690836003811115612d8457fe5b021790555060166000600160125403815260200190815260200160002060040160010154601760040160010181905550600060176004016002018190555060166000600160125403815260200190815260200160002060080160010154601760080160010181905550600060176008016002018190555060176016600060125481526020019081526020016000206000820160009054906101000a900460ff168160000160006101000a81548160ff02191690836003811115612e4357fe5b021790555060018201548160010155600282015481600201556003820154816003015560048201816004016000820154816000015560018201548160010155600282015481600201556003820154816003015550506008820181600801600082015481600001556001820154816001015560028201548160020155600382015481600301555050600c82015481600c0155600d82015481600d01559050505b565b60006016600083815260200190815260200160002060040160000154905060006016600084815260200190815260200160002060080160000154905060008183600454010190507f25e04c602f3746939c7e615856e6117a4b53a0ad3b7f085be3fbadd62500378a81848460405180848152602001838152602001828152602001935050505060405180910390a180601660008681526020019081526020016000206001018190555050505050565b828054600181600116156101000203166002900490600052602060002090601f016020900481019282601f10612fd457805160ff1916838001178555613002565b82800160010185558215613002579182015b82811115613001578251825591602001919060010190612fe6565b5b50905061300f9190613013565b5090565b61303591905b80821115613031576000816000905550600101613019565b5090565b9056fee58faae69c89e8afa5e59088e5908ce58f82e4b88ee88085e6898de883bde6938de4bd9ca165627a7a723058202e4021ead4b567b481760a02a9ed39def32dd3c8d4b0218f5a36ffb8fda9ead40029",
  "source": "pragma solidity >=0.4.21 <0.7.0;\r\n//import \"github.com/oraclize/ethereum-api/oraclizeAPI.sol\";\r\ncontract ContractDetail{\r\n        uint waterFee;//\r\n              uint electricityFee;//\r\n              uint waterMeter;//\r\n              uint electricityMeter;//\r\n              uint rentFee; //\r\n              uint rentTerm; //\r\n              uint256 startTime; //\r\n              uint256 endTime; //\r\n              uint PledgeFee;//yajin\r\n              address tenantPublickey;//f\r\n              address ownerPublickey;//\r\n              bytes addInfo;\r\n\r\n           function getInfo()  public view returns(uint,uint,uint,uint,uint,uint,uint,uint,uint,address,address,bytes memory){\r\n                 return(waterFee,electricityFee,waterMeter,electricityMeter,rentFee,rentTerm,startTime,endTime,PledgeFee,tenantPublickey,ownerPublickey,addInfo);\r\n             }\r\n        function getInfo2() public view returns (uint,uint,uint,uint,uint,uint,uint){\r\n            return(activeFee,needActiveFee,pledgeCash,currentStage,withDrawCashOwner,withDrawCashTenant,leaseFee);\r\n        }\r\n        function getStatusList() public view returns (ContractStatus,RentFeeStatus,PledgeConfirm){\r\n            return(status,rentstatus,pconfirm);\r\n        }\r\n\r\n              ContractStatus status;\r\n              RentFeeStatus rentstatus;\r\n              PledgeConfirm pconfirm;\r\n\r\n              uint activeFee;\r\n              uint needActiveFee;\r\n              uint pledgeCash;\r\n\r\n              uint currentStageRentFee;\r\n              uint rentCash;\r\n\r\n              uint currentStage;\r\n              uint withDrawCashOwner;\r\n              uint withDrawCashTenant;\r\n              uint leaseFee;\r\n              mapping(uint=>RentPamentInfo)  rentPaymentInfoMapping;\r\n              RentPamentInfo  rentPaymentInit  ;\r\n\r\n\r\n\r\n              struct MeterInfo{\r\n                  uint fee;\r\n                  uint lastMonthMeter;\r\n                  uint currentMonthMeter;\r\n                  uint currentMonthUse;\r\n              }\r\n\r\n              struct RentPamentInfo{\r\n                   RentFeeStatus status;\r\n                   uint rentFeeTotal;\r\n                   uint createDate;\r\n                   uint paymentDate;\r\n                   MeterInfo waterMeterInfo;\r\n                   MeterInfo electricityMeterInfo;\r\n                   uint rentFeeCash;\r\n                   uint ethRentFeeTaltal;\r\n              }\r\n\r\n              enum ContractStatus{\r\n                  ACTIVE_CONTRACT,\r\n                  SIGNTURE_CONTRACT,\r\n                  PLAYING_PLEDGE,\r\n                  PLAYING_RENT,\r\n                  WITHDRAW_PLEDGE,\r\n                  COMPLETED\r\n              }\r\n              enum RentFeeStatus{\r\n                  UN_ADD_METER,\r\n                  UN_PAY_RENT_FEE,\r\n                  PAYED_RENT_FEE,\r\n                  WITHDRAW_RENT_FEE\r\n              }\r\n              enum PledgeConfirm{\r\n                  CREATE,\r\n                  CONFIRMING,\r\n                  UN_ACCEPT,\r\n                  ACCEPT\r\n              }\r\n\r\n          event test(uint PledgeFee);\r\n          event ContractStatusEvent(address useraddress, ContractStatus status, bool isture,string output);\r\n          event PledgeWithdrawalStatusEvent(address useraddress, PledgeConfirm status, bool isture,string output);\r\n          event ActiveWithdrawlEvent (address useraddress, uint activefee, bool isture,string output);\r\n\r\n  modifier onlyTenant(){\r\n        require(address(msg.sender)==tenantPublickey,\"\");_;\r\n    }\r\n    modifier onlyOwner(){\r\n        require(address(msg.sender)== ownerPublickey,\"\");_;\r\n    }\r\n    modifier onlyContractJoiner(){\r\n        require(address(msg.sender)==ownerPublickey||address(msg.sender)==tenantPublickey,\"\");_;\r\n    }\r\n    modifier atStatus(ContractStatus _status){\r\n        require(status==_status,\"\");_;\r\n    }\r\n    modifier atRentFeeStage(uint _stage, RentFeeStatus _status){\r\n        require(rentPaymentInfoMapping[_stage].status==_status,\"\");_;\r\n    }\r\n    modifier atUnConfirmedStage(){\r\n        require(PledgeConfirm.ACCEPT!=pconfirm,\"\");_;\r\n    }\r\n    modifier atPledgeStageAccept(){\r\n        require(PledgeConfirm.ACCEPT==pconfirm,\"\");_;\r\n    }\r\n     function addHouseInfo (uint _warterFee, uint _electricityFee,uint _waterMeter,uint _electricityMeter,uint _rentFee, uint _rentTime, uint256 _startTime, uint256 _endTime,uint _PledgeFee,address _tenantPublickey ,address _ownerPublickey,bytes memory _addInfo) public {\r\n            waterFee=_warterFee;\r\n            electricityFee=_electricityFee;\r\n            waterMeter=_waterMeter;\r\n            electricityMeter=_electricityMeter;\r\n            rentFee=_rentFee;\r\n            rentTerm=_rentTime;\r\n            startTime=_startTime;\r\n            endTime=_endTime;\r\n            PledgeFee=_PledgeFee;\r\n            tenantPublickey=_tenantPublickey;\r\n            ownerPublickey=_ownerPublickey;\r\n            addInfo=_addInfo;\r\n\r\n            rentPaymentInit.rentFeeCash= rentFee=_rentFee;\r\n           // rentPaymentInit.waterMeterInfo.fee=waterFee;\r\n            rentPaymentInit.waterMeterInfo.lastMonthMeter=_waterMeter;\r\n           // rentPaymentInit.electricityMeterInfo.fee=electricityFee;\r\n            rentPaymentInit.electricityMeterInfo.lastMonthMeter=_electricityMeter;\r\n            rentPaymentInit.paymentDate=startTime;\r\n        }\r\n        /*\r\n              struct MeterInfo{\r\n                  uint fee;\r\n                  uint lastMonthMeter;\r\n                  uint currentMonthMeter;\r\n                  uint currentMonthUse;\r\n              }\r\n\r\n              struct RentPamentInfo{\r\n                   RentFeeStatus status;\r\n                   uint rentFeeTotal;\r\n                   uint createDate;\r\n                   uint paymentDate;\r\n                   MeterInfo waterMeterInfo;\r\n                   MeterInfo electricityMeterInfo;\r\n                   uint rentFeeCash;\r\n                   uint ethRentFeeTaltal;\r\n              }\r\n*/\r\n function activeContract() onlyOwner atStatus(ContractStatus.ACTIVE_CONTRACT) payable public{//\r\n        if(msg.value>=needActiveFee){\r\n            activeFee+=msg.value;\r\n            status= ContractStatus.SIGNTURE_CONTRACT;\r\n            emit ContractStatusEvent(msg.sender,status,true,\" \");\r\n            return;\r\n        }\r\n        else{\r\n            emit ContractStatusEvent(msg.sender,status,false,\"\");\r\n            return;\r\n        }\r\n    }\r\n    function signtureContract() onlyTenant atStatus(ContractStatus.SIGNTURE_CONTRACT) payable public{//\r\n            status = ContractStatus.PLAYING_PLEDGE;\r\n             emit ContractStatusEvent(msg.sender,status,false,\"\");\r\n        }\r\n\r\n        function payPledge() onlyTenant atStatus(ContractStatus.PLAYING_PLEDGE) payable public{//\r\n          pledgeCash +=msg.value;\r\n            if(pledgeCash>PledgeFee){\r\n                emit ContractStatusEvent(msg.sender,status,false,\" \");\r\n                return;\r\n            }\r\n            if(pledgeCash==PledgeFee){\r\n                status = ContractStatus.PLAYING_RENT;\r\n               addRentPamentInfo();\r\n                emit ContractStatusEvent(msg.sender,status,true,\" \");\r\n                return;\r\n            }\r\n            else{\r\n                emit ContractStatusEvent(msg.sender,status,false,\" \");\r\n                return;\r\n            }\r\n        }\r\n         function getInfo3() public view returns(uint,uint){\r\n                 return(pledgeCash,PledgeFee);\r\n             }\r\n          function addRentPamentInfo() internal{//\r\n                if(currentStage==0){\r\n                    rentPaymentInfoMapping[currentStage]=rentPaymentInit;\r\n                    updatePrice(0);\r\n                }\r\n                else{\r\n                    rentPaymentInit.status=RentFeeStatus.UN_ADD_METER;\r\n                    rentPaymentInit.waterMeterInfo.lastMonthMeter=rentPaymentInfoMapping[currentStage-1].waterMeterInfo.lastMonthMeter;\r\n                    rentPaymentInit.waterMeterInfo.currentMonthMeter=0;\r\n                    rentPaymentInit.electricityMeterInfo.lastMonthMeter=rentPaymentInfoMapping[currentStage-1].electricityMeterInfo.lastMonthMeter;\r\n                    rentPaymentInit.electricityMeterInfo.currentMonthMeter=0;\r\n                    rentPaymentInfoMapping[currentStage]=rentPaymentInit;\r\n                }\r\n            }\r\n              function generateMeter(uint _stage,uint _currentWaterMeter, uint _cureentElectricityMeter)\r\n                onlyContractJoiner\r\n                 public {\r\n                    RentPamentInfo storage currentPaymentInfo = rentPaymentInfoMapping[_stage];\r\n                    RentPamentInfo storage prevPaymentInfo =  rentPaymentInfoMapping[_stage-1];\r\n                    MeterInfo storage prevWaterMeterInfo = prevPaymentInfo.waterMeterInfo;\r\n                    MeterInfo storage preElectricMeterInfo = prevPaymentInfo.electricityMeterInfo;\r\n                    uint waterMeterCount=_currentWaterMeter - prevWaterMeterInfo.lastMonthMeter;\r\n                    uint electricityMeterCount = _cureentElectricityMeter - preElectricMeterInfo.lastMonthMeter;\r\n\r\n                    currentPaymentInfo.waterMeterInfo.currentMonthMeter=_currentWaterMeter;\r\n                    currentPaymentInfo.waterMeterInfo.fee = waterMeterCount * waterFee;\r\n                    currentPaymentInfo.waterMeterInfo.currentMonthUse = waterMeterCount;\r\n\r\n                    currentPaymentInfo.electricityMeterInfo.currentMonthMeter=_cureentElectricityMeter;\r\n                    currentPaymentInfo.electricityMeterInfo.fee = electricityMeterCount * electricityFee;\r\n                    currentPaymentInfo.electricityMeterInfo.currentMonthUse = electricityMeterCount;\r\n\r\n                    currentPaymentInfo.waterMeterInfo.lastMonthMeter=_currentWaterMeter;\r\n                     currentPaymentInfo.electricityMeterInfo.lastMonthMeter=_cureentElectricityMeter;\r\n\r\n                     emit test3(currentStage,electricityMeterCount);\r\n                    emit test3(waterMeterCount,electricityMeterCount);\r\n                    emit test3(currentPaymentInfo.electricityMeterInfo.fee, currentPaymentInfo.waterMeterInfo.fee);\r\n\r\n                    currentPaymentInfo.status=RentFeeStatus.UN_PAY_RENT_FEE;\r\n                    rentPaymentInfoMapping[_stage]=currentPaymentInfo;\r\n                    updatePrice(_stage);\r\n                }\r\n                event test3(uint w,uint e);\r\n\r\n                event test2(uint stage,uint rentFeeTotal,uint wfee,uint efee,uint wmeter,uint emeter);\r\n                function setMeter(uint b,uint c)public {\r\n                    currentStage++;\r\n                    addRentPamentInfo();\r\n                    generateMeter(currentStage,b,c);\r\n\r\n\r\n                    emit test2(currentStage,rentPaymentInfoMapping[currentStage].rentFeeTotal,\r\n                    rentPaymentInfoMapping[currentStage].waterMeterInfo.fee, rentPaymentInfoMapping[currentStage].electricityMeterInfo.fee,\r\n                     rentPaymentInfoMapping[currentStage].waterMeterInfo.lastMonthMeter, rentPaymentInfoMapping[currentStage].electricityMeterInfo.lastMonthMeter);\r\n                }\r\n\r\nevent test4(uint total,uint wfee,uint efee);\r\n                function updatePrice(uint _stage)internal{//\r\n\r\n                    uint _waterFee=rentPaymentInfoMapping[_stage].waterMeterInfo.fee;\r\n                    uint _electricityFee=rentPaymentInfoMapping[_stage].electricityMeterInfo.fee;\r\n                    uint total= rentFee+_waterFee+_electricityFee;\r\n                    emit test4(total,_waterFee,_electricityFee);\r\n                    rentPaymentInfoMapping[_stage].rentFeeTotal=total;\r\n\r\n                }\r\n\r\n\r\n\r\n        function payRent() onlyTenant atStatus(ContractStatus.PLAYING_RENT) payable public{//\r\n            uint _stage=currentStage;\r\n            rentCash =msg.value;\r\n            emit test3(rentCash ,rentPaymentInfoMapping[_stage].rentFeeTotal);\r\n\r\n            if(rentCash>rentPaymentInfoMapping[_stage].rentFeeTotal){\r\n                emit ContractStatusEvent(msg.sender,status,false,\" \");\r\n                return;\r\n            }\r\n            if(rentCash==rentPaymentInfoMapping[_stage].rentFeeTotal){\r\n                rentPaymentInfoMapping[_stage].status=RentFeeStatus.PAYED_RENT_FEE;\r\n                emit ContractStatusEvent(msg.sender,status,true,\" \");\r\n                return;\r\n            }\r\n            else{\r\n                emit ContractStatusEvent(msg.sender,status,false,\" \");\r\n                return;\r\n            }\r\n        }\r\n\r\n                function completeRentFee()//\r\n                onlyContractJoiner\r\n                atStatus(ContractStatus.PLAYING_RENT)public {\r\n                    if(currentStage==rentTerm-1){\r\n                        for(uint i=0;i<=currentStage;i++){\r\n                            if(rentPaymentInfoMapping[i].status!= RentFeeStatus.PAYED_RENT_FEE){\r\n                                emit ContractStatusEvent(msg.sender,status,false,\"  \");\r\n                                return;\r\n                            }\r\n                        }\r\n                    }\r\n                    else{\r\n                            emit ContractStatusEvent(msg.sender,status,false,\"\");\r\n                            return;\r\n                        }\r\n                    status = ContractStatus.WITHDRAW_PLEDGE;\r\n                    emit ContractStatusEvent(msg.sender,status,true,\"finish\");\r\n                    return;\r\n                }\r\n                 function judgeWithDrawalPledge(uint _amount) onlyOwner atStatus(ContractStatus.WITHDRAW_PLEDGE) atUnConfirmedStage()public{\r\n                        withDrawCashOwner=pledgeCash - _amount;\r\n                        withDrawCashTenant = _amount;\r\n                        pconfirm=PledgeConfirm.CONFIRMING;\r\n                        emit PledgeWithdrawalStatusEvent(msg.sender,pconfirm,true,\"\");\r\n                    }\r\n                 function isAgree(uint _agree) onlyTenant atStatus(ContractStatus.WITHDRAW_PLEDGE)\r\n                    atUnConfirmedStage public\r\n                    {\r\n                        if(_agree==2){\r\n                            pconfirm = PledgeConfirm.UN_ACCEPT;\r\n                              emit PledgeWithdrawalStatusEvent(msg.sender,pconfirm,false,\"\");\r\n                             emit ContractStatusEvent(msg.sender,status,false,\"\");\r\n                        }\r\n                        else if(_agree ==3){\r\n                            pconfirm = PledgeConfirm.ACCEPT;\r\n                            status = ContractStatus.COMPLETED;\r\n                              emit PledgeWithdrawalStatusEvent(msg.sender,pconfirm,true,\" \");\r\n                            emit ContractStatusEvent(msg.sender,status,true,\"\");\r\n                        }\r\n                    }\r\n                    function withdrawActiveFee()\r\n                    atStatus(ContractStatus.COMPLETED) onlyOwner payable public{\r\n                        uint amount = activeFee;\r\n                        if(amount>0){\r\n                             activeFee=0;\r\n                             if(!msg.sender.send(amount)){\r\n                                 activeFee=amount;\r\n                                 emit ActiveWithdrawlEvent(msg.sender,activeFee,false,\"\");\r\n                                 return;\r\n                             }\r\n                             else{\r\n                                 emit ActiveWithdrawlEvent(msg.sender,activeFee,true,\" \");\r\n                                 return;\r\n                             }\r\n                        }\r\n                        else{\r\n                                 revert();\r\n                             }\r\n                    }\r\n\r\n\r\n\r\n\r\n}",
  "sourcePath": "C:\\Users\\1\\test\\contracts\\ContractDetail.sol",
  "compiler": {
    "name": "solc",
    "version": "0.5.8+commit.23d335f2.Emscripten.clang"
  },
  "schemaVersion": "3.0.11",
  "updatedAt": "2020-06-05T03:34:53.180Z",
  "devdoc": {
    "methods": {}
  },
  "userdoc": {
    "methods": {}
  }
}