{
  "contractName": "CreateContract",
  "abi": [
    {
      "constant": true,
      "inputs": [
        {
          "name": "",
          "type": "address"
        },
        {
          "name": "",
          "type": "uint256"
        }
      ],
      "name": "ContractDetailMap",
      "outputs": [
        {
          "name": "",
          "type": "address"
        }
      ],
      "payable": false,
      "stateMutability": "view",
      "type": "function"
    },
    {
      "anonymous": false,
      "inputs": [
        {
          "indexed": false,
          "name": "curAd",
          "type": "address"
        },
        {
          "indexed": false,
          "name": "isture",
          "type": "bool"
        },
        {
          "indexed": false,
          "name": "contractAdd",
          "type": "address"
        }
      ],
      "name": "ContractDetailEvent",
      "type": "event"
    },
    {
      "constant": false,
      "inputs": [],
      "name": "set",
      "outputs": [],
      "payable": true,
      "stateMutability": "payable",
      "type": "function"
    },
    {
      "constant": false,
      "inputs": [],
      "name": "set2",
      "outputs": [],
      "payable": true,
      "stateMutability": "payable",
      "type": "function"
    },
    {
      "constant": false,
      "inputs": [],
      "name": "test",
      "outputs": [],
      "payable": true,
      "stateMutability": "payable",
      "type": "function"
    },
    {
      "constant": true,
      "inputs": [],
      "name": "test2",
      "outputs": [
        {
          "name": "",
          "type": "uint256"
        }
      ],
      "payable": false,
      "stateMutability": "pure",
      "type": "function"
    },
    {
      "constant": true,
      "inputs": [],
      "name": "getSmartContractNum",
      "outputs": [
        {
          "name": "",
          "type": "uint256"
        }
      ],
      "payable": false,
      "stateMutability": "view",
      "type": "function"
    },
    {
      "constant": false,
      "inputs": [
        {
          "name": "_warterFee",
          "type": "uint256"
        },
        {
          "name": "_electricityFee",
          "type": "uint256"
        },
        {
          "name": "_waterMeter",
          "type": "uint256"
        },
        {
          "name": "_electricityMeter",
          "type": "uint256"
        },
        {
          "name": "_rentFee",
          "type": "uint256"
        },
        {
          "name": "_rentTerm",
          "type": "uint256"
        },
        {
          "name": "_startTime",
          "type": "uint256"
        },
        {
          "name": "_endTime",
          "type": "uint256"
        },
        {
          "name": "_PledgeFee",
          "type": "uint256"
        },
        {
          "name": "_TenantPublickey",
          "type": "address"
        },
        {
          "name": "_addInfo",
          "type": "bytes"
        }
      ],
      "name": "createSmartContract",
      "outputs": [],
      "payable": true,
      "stateMutability": "payable",
      "type": "function"
    }
  ],
  "bytecode": "0x6080604052600a60005534801561001557600080fd5b506150c8806100256000396000f3fe6080604052600436106100705760003560e01c80636f3156381161004e5780636f3156381461027157806386d7e5d01461027b578063b8e010de146102a6578063f8a8fd6d146102b057610070565b80633dd90d431461007557806347688b171461011057806366e41cb714610246575b600080fd5b34801561008157600080fd5b506100ce6004803603604081101561009857600080fd5b81019080803573ffffffffffffffffffffffffffffffffffffffff169060200190929190803590602001909291905050506102ba565b604051808273ffffffffffffffffffffffffffffffffffffffff1673ffffffffffffffffffffffffffffffffffffffff16815260200191505060405180910390f35b610244600480360361016081101561012757600080fd5b81019080803590602001909291908035906020019092919080359060200190929190803590602001909291908035906020019092919080359060200190929190803590602001909291908035906020019092919080359060200190929190803573ffffffffffffffffffffffffffffffffffffffff169060200190929190803590602001906401000000008111156101be57600080fd5b8201836020820111156101d057600080fd5b803590602001918460018302840111640100000000831117156101f257600080fd5b91908080601f016020809104026020016040519081016040528093929190818152602001838380828437600081840152601f19601f820116905080830192505050505050509192919290505050610305565b005b34801561025257600080fd5b5061025b610803565b6040518082815260200191505060405180910390f35b61027961080c565b005b34801561028757600080fd5b5061029061083c565b6040518082815260200191505060405180910390f35b6102ae6108ac565b005b6102b86108dc565b005b600160205281600052604060002081815481106102d357fe5b906000526020600020016000915091509054906101000a900473ffffffffffffffffffffffffffffffffffffffff1681565b600033905060008c11801561031a575060008b115b8015610326575060008a115b80156103325750600089115b801561033e5750600088115b801561034a5750600087115b80156103565750600086115b80156103625750600085115b801561036e5750600084115b80156103a75750600073ffffffffffffffffffffffffffffffffffffffff168373ffffffffffffffffffffffffffffffffffffffff1614155b80156103b4575060008251115b61045d577fc9a4868e0f9b3a648b2806e9babb282cdde0f2abc303165980c7cd4b5cb56d5b81600080604051808473ffffffffffffffffffffffffffffffffffffffff1673ffffffffffffffffffffffffffffffffffffffff168152602001831515151581526020018273ffffffffffffffffffffffffffffffffffffffff1673ffffffffffffffffffffffffffffffffffffffff168152602001935050505060405180910390a15b600060405161046b906108e6565b604051809103906000f080158015610487573d6000803e3d6000fd5b5090508073ffffffffffffffffffffffffffffffffffffffff166370890a9b8e8e8e8e8e8e8e8e8e8e8d8f6040518d63ffffffff1660e01b8152600401808d81526020018c81526020018b81526020018a81526020018981526020018881526020018781526020018681526020018581526020018473ffffffffffffffffffffffffffffffffffffffff1673ffffffffffffffffffffffffffffffffffffffff1681526020018373ffffffffffffffffffffffffffffffffffffffff1673ffffffffffffffffffffffffffffffffffffffff16815260200180602001828103825283818151815260200191508051906020019080838360005b8381101561059b578082015181840152602081019050610580565b50505050905090810190601f1680156105c85780820380516001836020036101000a031916815260200191505b509d5050505050505050505050505050600060405180830381600087803b1580156105f257600080fd5b505af1158015610606573d6000803e3d6000fd5b50505050600160008373ffffffffffffffffffffffffffffffffffffffff1673ffffffffffffffffffffffffffffffffffffffff1681526020019081526020016000208190806001815401808255809150509060018203906000526020600020016000909192909190916101000a81548173ffffffffffffffffffffffffffffffffffffffff021916908373ffffffffffffffffffffffffffffffffffffffff16021790555050600160008573ffffffffffffffffffffffffffffffffffffffff1673ffffffffffffffffffffffffffffffffffffffff1681526020019081526020016000208190806001815401808255809150509060018203906000526020600020016000909192909190916101000a81548173ffffffffffffffffffffffffffffffffffffffff021916908373ffffffffffffffffffffffffffffffffffffffff160217905550507fc9a4868e0f9b3a648b2806e9babb282cdde0f2abc303165980c7cd4b5cb56d5b82600183604051808473ffffffffffffffffffffffffffffffffffffffff1673ffffffffffffffffffffffffffffffffffffffff168152602001831515151581526020018273ffffffffffffffffffffffffffffffffffffffff1673ffffffffffffffffffffffffffffffffffffffff168152602001935050505060405180910390a150505050505050505050505050565b6000600a905090565b600060405161081a906108e6565b604051809103906000f080158015610836573d6000803e3d6000fd5b50905050565b60008060008090505b600160003373ffffffffffffffffffffffffffffffffffffffff1673ffffffffffffffffffffffffffffffffffffffff168152602001908152602001600020805490508110156108a45781806001019250508080600101915050610845565b508091505090565b60006040516108ba906108f3565b604051809103906000f0801580156108d6573d6000803e3d6000fd5b50905050565b600b600081905550565b6130a88061090183390190565b6116f4806139a98339019056fe608060405234801561001057600080fd5b50613088806100206000396000f3fe6080604052600436106100e85760003560e01c8063895a74491161008a578063a709c4fe11610059578063a709c4fe1461050a578063b75fe1f214610514578063be84f94414610563578063de4a0386146105b8576100e8565b8063895a74491461047c5780638c21b6121461048657806398b7a7d31461049d5780639a6cc193146104a7576100e8565b80635a9b0b89116100c65780635a9b0b891461019557806370890a9b146102ca578063792e6e5b1461042d57806386b948f814610437576100e8565b806344102fce146100ed5780634917dfdd1461011f57806349756f921461015a575b600080fd5b3480156100f957600080fd5b506101026105c2565b604051808381526020018281526020019250505060405180910390f35b34801561012b57600080fd5b506101586004803603602081101561014257600080fd5b81019080803590602001909291905050506105d3565b005b34801561016657600080fd5b506101936004803603602081101561017d57600080fd5b81019080803590602001909291905050506108d5565b005b3480156101a157600080fd5b506101aa610e90565b604051808d81526020018c81526020018b81526020018a81526020018981526020018881526020018781526020018681526020018581526020018473ffffffffffffffffffffffffffffffffffffffff1673ffffffffffffffffffffffffffffffffffffffff1681526020018373ffffffffffffffffffffffffffffffffffffffff1673ffffffffffffffffffffffffffffffffffffffff16815260200180602001828103825283818151815260200191508051906020019080838360005b83811015610284578082015181840152602081019050610269565b50505050905090810190601f1680156102b15780820380516001836020036101000a031916815260200191505b509d505050505050505050505050505060405180910390f35b3480156102d657600080fd5b5061042b60048036036101808110156102ee57600080fd5b81019080803590602001909291908035906020019092919080359060200190929190803590602001909291908035906020019092919080359060200190929190803590602001909291908035906020019092919080359060200190929190803573ffffffffffffffffffffffffffffffffffffffff169060200190929190803573ffffffffffffffffffffffffffffffffffffffff169060200190929190803590602001906401000000008111156103a557600080fd5b8201836020820111156103b757600080fd5b803590602001918460018302840111640100000000831117156103d957600080fd5b91908080601f016020809104026020016040519081016040528093929190818152602001838380828437600081840152601f19601f820116905080830192505050505050509192919290505050610fc8565b005b6104356110e3565b005b34801561044357600080fd5b5061047a6004803603604081101561045a57600080fd5b810190808035906020019092919080359060200190929190505050611414565b005b610484611524565b005b34801561049257600080fd5b5061049b611778565b005b6104a5611c21565b005b3480156104b357600080fd5b506104bc61204c565b604051808460058111156104cc57fe5b60ff1681526020018360038111156104e057fe5b60ff1681526020018260038111156104f457fe5b60ff168152602001935050505060405180910390f35b61051261208c565b005b34801561052057600080fd5b506105616004803603606081101561053757600080fd5b81019080803590602001909291908035906020019092919080359060200190929190505050612543565b005b34801561056f57600080fd5b506105786128ea565b6040518088815260200187815260200186815260200185815260200184815260200183815260200182815260200197505050505050505060405180910390f35b6105c0612921565b005b600080600f54600854915091509091565b600a60009054906101000a900473ffffffffffffffffffffffffffffffffffffffff1673ffffffffffffffffffffffffffffffffffffffff163373ffffffffffffffffffffffffffffffffffffffff1614610696576040517f08c379a00000000000000000000000000000000000000000000000000000000081526004018080602001828103825260188152602001807fe58faae69c89e688bfe4b89ce6898de883bde6938de4bd9c000000000000000081525060200191505060405180910390fd5b60048060058111156106a457fe5b600c60009054906101000a900460ff1660058111156106bf57fe5b14610732576040517f08c379a00000000000000000000000000000000000000000000000000000000081526004018080602001828103825260158152602001807fe4b88de7aca6e59088e5bd93e5898de78ab6e68081000000000000000000000081525060200191505060405180910390fd5b600c60029054906101000a900460ff16600381111561074d57fe5b60038081111561075957fe5b14156107cd576040517f08c379a000000000000000000000000000000000000000000000000000000000815260040180806020018281038252601e8152602001807fe8afa5e6938de4bd9ce4b88de7aca6e59088e5bd93e5898de78ab6e68081000081525060200191505060405180910390fd5b81600f5403601381905550816014819055506001600c60026101000a81548160ff021916908360038111156107fe57fe5b02179055507f8734ad07c056f7feceb21115b19f98b21ecd2e075f3ea6945471b30df58010ae33600c60029054906101000a900460ff166001604051808473ffffffffffffffffffffffffffffffffffffffff1673ffffffffffffffffffffffffffffffffffffffff16815260200183600381111561087957fe5b60ff16815260200182151515158152602001806020018281038252601b8152602001807fe4bfaee694b9e78ab6e68081e5be85e7a79fe5aea2e7a1aee8aea4000000000081525060200194505050505060405180910390a15050565b600960009054906101000a900473ffffffffffffffffffffffffffffffffffffffff1673ffffffffffffffffffffffffffffffffffffffff163373ffffffffffffffffffffffffffffffffffffffff1614610998576040517f08c379a00000000000000000000000000000000000000000000000000000000081526004018080602001828103825260188152602001807fe58faae69c89e7a79fe5aea2e6898de883bde6938de4bd9c000000000000000081525060200191505060405180910390fd5b60048060058111156109a657fe5b600c60009054906101000a900460ff1660058111156109c157fe5b14610a34576040517f08c379a00000000000000000000000000000000000000000000000000000000081526004018080602001828103825260158152602001807fe4b88de7aca6e59088e5bd93e5898de78ab6e68081000000000000000000000081525060200191505060405180910390fd5b600c60029054906101000a900460ff166003811115610a4f57fe5b600380811115610a5b57fe5b1415610acf576040517f08c379a000000000000000000000000000000000000000000000000000000000815260040180806020018281038252601e8152602001807fe8afa5e6938de4bd9ce4b88de7aca6e59088e5bd93e5898de78ab6e68081000081525060200191505060405180910390fd5b6002821415610c9d576002600c60026101000a81548160ff02191690836003811115610af757fe5b02179055507f8734ad07c056f7feceb21115b19f98b21ecd2e075f3ea6945471b30df58010ae33600c60029054906101000a900460ff166000604051808473ffffffffffffffffffffffffffffffffffffffff1673ffffffffffffffffffffffffffffffffffffffff168152602001836003811115610b7257fe5b60ff1681526020018215151515815260200180602001828103825260158152602001807fe4b88de68ea5e58f97e98080e59b9ee68abce98791000000000000000000000081525060200194505050505060405180910390a17f9687deedb2ec361db89057dc6a602fb94263d090f6937fd20ef4f4bcf54de65633600c60009054906101000a900460ff166000604051808473ffffffffffffffffffffffffffffffffffffffff1673ffffffffffffffffffffffffffffffffffffffff168152602001836005811115610c4057fe5b60ff1681526020018215151515815260200180602001828103825260158152602001807fe4b88de68ea5e58f97e98080e59b9ee68abce98791000000000000000000000081525060200194505050505060405180910390a1610e8c565b6003821415610e8b576003600c60026101000a81548160ff02191690836003811115610cc557fe5b02179055506005600c60006101000a81548160ff02191690836005811115610ce957fe5b02179055507f8734ad07c056f7feceb21115b19f98b21ecd2e075f3ea6945471b30df58010ae33600c60029054906101000a900460ff166001604051808473ffffffffffffffffffffffffffffffffffffffff1673ffffffffffffffffffffffffffffffffffffffff168152602001836003811115610d6457fe5b60ff1681526020018215151515815260200180602001828103825260138152602001807fe68ea5e58f97e98080e59b9ee68abce98791200000000000000000000000000081525060200194505050505060405180910390a17f9687deedb2ec361db89057dc6a602fb94263d090f6937fd20ef4f4bcf54de65633600c60009054906101000a900460ff166001604051808473ffffffffffffffffffffffffffffffffffffffff1673ffffffffffffffffffffffffffffffffffffffff168152602001836005811115610e3257fe5b60ff1681526020018215151515815260200180602001828103825260128152602001807fe7a79fe8b581e59088e5908ce5ae8ce68890000000000000000000000000000081525060200194505050505060405180910390a15b5b5050565b60008060008060008060008060008060006060600054600154600254600354600454600554600654600754600854600960009054906101000a900473ffffffffffffffffffffffffffffffffffffffff16600a60009054906101000a900473ffffffffffffffffffffffffffffffffffffffff16600b808054600181600116156101000203166002900480601f016020809104026020016040519081016040528092919081815260200182805460018160011615610100020316600290048015610f9b5780601f10610f7057610100808354040283529160200191610f9b565b820191906000526020600020905b815481529060010190602001808311610f7e57829003601f168201915b505050505090509b509b509b509b509b509b509b509b509b509b509b509b50909192939495969798999a9b565b8b6000819055508a6001819055508960028190555088600381905550876004819055508660058190555085600681905550846007819055508360088190555082600960006101000a81548173ffffffffffffffffffffffffffffffffffffffff021916908373ffffffffffffffffffffffffffffffffffffffff16021790555081600a60006101000a81548173ffffffffffffffffffffffffffffffffffffffff021916908373ffffffffffffffffffffffffffffffffffffffff16021790555080600b908051906020019061109f929190612f93565b508760048190556017600c01819055508960176004016001018190555088601760080160010181905550600654601760030181905550505050505050505050505050565b60058060058111156110f157fe5b600c60009054906101000a900460ff16600581111561110c57fe5b1461117f576040517f08c379a00000000000000000000000000000000000000000000000000000000081526004018080602001828103825260158152602001807fe4b88de7aca6e59088e5bd93e5898de78ab6e68081000000000000000000000081525060200191505060405180910390fd5b600a60009054906101000a900473ffffffffffffffffffffffffffffffffffffffff1673ffffffffffffffffffffffffffffffffffffffff163373ffffffffffffffffffffffffffffffffffffffff1614611242576040517f08c379a00000000000000000000000000000000000000000000000000000000081526004018080602001828103825260188152602001807fe58faae69c89e688bfe4b89ce6898de883bde6938de4bd9c000000000000000081525060200191505060405180910390fd5b6000600d549050600081111561140c576000600d819055503373ffffffffffffffffffffffffffffffffffffffff166108fc829081150290604051600060405180830381858888f193505050506113535780600d819055507f71b6fa5229930c333849af892be3258d19330a420ccf0b2c8d2eb7481c094fc733600d546000604051808473ffffffffffffffffffffffffffffffffffffffff1673ffffffffffffffffffffffffffffffffffffffff1681526020018381526020018215151515815260200180602001828103825260188152602001807fe58f96e587bae59088e5908ce4bd99e9a29de5a4b1e8b4a5000000000000000081525060200194505050505060405180910390a150611411565b7f71b6fa5229930c333849af892be3258d19330a420ccf0b2c8d2eb7481c094fc733600d546001604051808473ffffffffffffffffffffffffffffffffffffffff1673ffffffffffffffffffffffffffffffffffffffff1681526020018381526020018215151515815260200180602001828103825260168152602001807fe58f96e587bae59088e5908ce4bd99e68890e58a9f200000000000000000000081525060200194505050505060405180910390a150611411565b600080fd5b50565b60126000815480929190600101919050555061142e612c62565b61143b6012548383612543565b7f7e68ea8c2d3c41ab6aaf540c09f95a8542815968769f8585d9fbc21e46cd97c9601254601660006012548152602001908152602001600020600101546016600060125481526020019081526020016000206004016000015460166000601254815260200190815260200160002060080160000154601660006012548152602001908152602001600020600401600101546016600060125481526020019081526020016000206008016001015460405180878152602001868152602001858152602001848152602001838152602001828152602001965050505050505060405180910390a15050565b600960009054906101000a900473ffffffffffffffffffffffffffffffffffffffff1673ffffffffffffffffffffffffffffffffffffffff163373ffffffffffffffffffffffffffffffffffffffff16146115e7576040517f08c379a00000000000000000000000000000000000000000000000000000000081526004018080602001828103825260188152602001807fe58faae69c89e7a79fe5aea2e6898de883bde6938de4bd9c000000000000000081525060200191505060405180910390fd5b60018060058111156115f557fe5b600c60009054906101000a900460ff16600581111561161057fe5b14611683576040517f08c379a00000000000000000000000000000000000000000000000000000000081526004018080602001828103825260158152602001807fe4b88de7aca6e59088e5bd93e5898de78ab6e68081000000000000000000000081525060200191505060405180910390fd5b6002600c60006101000a81548160ff021916908360058111156116a257fe5b02179055507f9687deedb2ec361db89057dc6a602fb94263d090f6937fd20ef4f4bcf54de65633600c60009054906101000a900460ff166000604051808473ffffffffffffffffffffffffffffffffffffffff1673ffffffffffffffffffffffffffffffffffffffff16815260200183600581111561171d57fe5b60ff16815260200182151515158152602001806020018281038252600c8152602001807fe7adbee5908de68890e58a9f000000000000000000000000000000000000000081525060200194505050505060405180910390a150565b600a60009054906101000a900473ffffffffffffffffffffffffffffffffffffffff1673ffffffffffffffffffffffffffffffffffffffff163373ffffffffffffffffffffffffffffffffffffffff1614806118215750600960009054906101000a900473ffffffffffffffffffffffffffffffffffffffff1673ffffffffffffffffffffffffffffffffffffffff163373ffffffffffffffffffffffffffffffffffffffff16145b611876576040517f08c379a00000000000000000000000000000000000000000000000000000000081526004018080602001828103825260248152602001806130396024913960400191505060405180910390fd5b600380600581111561188457fe5b600c60009054906101000a900460ff16600581111561189f57fe5b14611912576040517f08c379a00000000000000000000000000000000000000000000000000000000081526004018080602001828103825260158152602001807fe4b88de7aca6e59088e5bd93e5898de78ab6e68081000000000000000000000081525060200191505060405180910390fd5b6001600554036012541415611a585760008090505b6012548111611a52576002600381111561193d57fe5b6016600083815260200190815260200160002060000160009054906101000a900460ff16600381111561196c57fe5b14611a45577f9687deedb2ec361db89057dc6a602fb94263d090f6937fd20ef4f4bcf54de65633600c60009054906101000a900460ff166000604051808473ffffffffffffffffffffffffffffffffffffffff1673ffffffffffffffffffffffffffffffffffffffff1681526020018360058111156119e757fe5b60ff1681526020018215151515815260200180602001828103825260178152602001807fe5ad98e59ca8e69caae694afe4bb98e7a79fe98791202000000000000000000081525060200194505050505060405180910390a150611c1e565b8080600101915050611927565b50611b2b565b7f9687deedb2ec361db89057dc6a602fb94263d090f6937fd20ef4f4bcf54de65633600c60009054906101000a900460ff166000604051808473ffffffffffffffffffffffffffffffffffffffff1673ffffffffffffffffffffffffffffffffffffffff168152602001836005811115611ace57fe5b60ff1681526020018215151515815260200180602001828103825260098152602001807fe69caae588b0e69c9f000000000000000000000000000000000000000000000081525060200194505050505060405180910390a1611c1e565b6004600c60006101000a81548160ff02191690836005811115611b4a57fe5b02179055507f9687deedb2ec361db89057dc6a602fb94263d090f6937fd20ef4f4bcf54de65633600c60009054906101000a900460ff166001604051808473ffffffffffffffffffffffffffffffffffffffff1673ffffffffffffffffffffffffffffffffffffffff168152602001836005811115611bc557fe5b60ff1681526020018215151515815260200180602001828103825260068152602001807f66696e697368000000000000000000000000000000000000000000000000000081525060200194505050505060405180910390a15b50565b600960009054906101000a900473ffffffffffffffffffffffffffffffffffffffff1673ffffffffffffffffffffffffffffffffffffffff163373ffffffffffffffffffffffffffffffffffffffff1614611ce4576040517f08c379a00000000000000000000000000000000000000000000000000000000081526004018080602001828103825260188152602001807fe58faae69c89e7a79fe5aea2e6898de883bde6938de4bd9c000000000000000081525060200191505060405180910390fd5b6002806005811115611cf257fe5b600c60009054906101000a900460ff166005811115611d0d57fe5b14611d80576040517f08c379a00000000000000000000000000000000000000000000000000000000081526004018080602001828103825260158152602001807fe4b88de7aca6e59088e5bd93e5898de78ab6e68081000000000000000000000081525060200191505060405180910390fd5b34600f60008282540192505081905550600854600f541115611e6f577f9687deedb2ec361db89057dc6a602fb94263d090f6937fd20ef4f4bcf54de65633600c60009054906101000a900460ff166000604051808473ffffffffffffffffffffffffffffffffffffffff1673ffffffffffffffffffffffffffffffffffffffff168152602001836005811115611e1257fe5b60ff1681526020018215151515815260200180602001828103825260138152602001807fe694afe4bb98e68abce98791e8bf87e5a49a200000000000000000000000000081525060200194505050505060405180910390a1612049565b600854600f541415611f7a576003600c60006101000a81548160ff02191690836005811115611e9a57fe5b0217905550611ea7612c62565b7f9687deedb2ec361db89057dc6a602fb94263d090f6937fd20ef4f4bcf54de65633600c60009054906101000a900460ff166001604051808473ffffffffffffffffffffffffffffffffffffffff1673ffffffffffffffffffffffffffffffffffffffff168152602001836005811115611f1d57fe5b60ff1681526020018215151515815260200180602001828103825260108152602001807fe5b7b2e694afe4bb98e68abce98791200000000000000000000000000000000081525060200194505050505060405180910390a1612049565b7f9687deedb2ec361db89057dc6a602fb94263d090f6937fd20ef4f4bcf54de65633600c60009054906101000a900460ff166000604051808473ffffffffffffffffffffffffffffffffffffffff1673ffffffffffffffffffffffffffffffffffffffff168152602001836005811115611ff057fe5b60ff1681526020018215151515815260200180602001828103825260138152602001807fe694afe4bb98e68abce98791e8bf87e5b091200000000000000000000000000081525060200194505050505060405180910390a15b50565b6000806000600c60009054906101000a900460ff16600c60019054906101000a900460ff16600c60029054906101000a900460ff16925092509250909192565b600960009054906101000a900473ffffffffffffffffffffffffffffffffffffffff1673ffffffffffffffffffffffffffffffffffffffff163373ffffffffffffffffffffffffffffffffffffffff161461214f576040517f08c379a00000000000000000000000000000000000000000000000000000000081526004018080602001828103825260188152602001807fe58faae69c89e7a79fe5aea2e6898de883bde6938de4bd9c000000000000000081525060200191505060405180910390fd5b600380600581111561215d57fe5b600c60009054906101000a900460ff16600581111561217857fe5b146121eb576040517f08c379a00000000000000000000000000000000000000000000000000000000081526004018080602001828103825260158152602001807fe4b88de7aca6e59088e5bd93e5898de78ab6e68081000000000000000000000081525060200191505060405180910390fd5b60006012549050346011819055507f01da4a4e855541f8b5940a422607cdeced915fa9057356292f09b5149e4567276011546016600084815260200190815260200160002060010154604051808381526020018281526020019250505060405180910390a160166000828152602001908152602001600020600101546011541115612344577f9687deedb2ec361db89057dc6a602fb94263d090f6937fd20ef4f4bcf54de65633600c60009054906101000a900460ff166000604051808473ffffffffffffffffffffffffffffffffffffffff1673ffffffffffffffffffffffffffffffffffffffff1681526020018360058111156122e657fe5b60ff1681526020018215151515815260200180602001828103825260138152602001807fe694afe4bb98e68abce98791e8bf87e5a49a200000000000000000000000000081525060200194505050505060405180910390a150612540565b601660008281526020019081526020016000206001015460115414156124705760026016600083815260200190815260200160002060000160006101000a81548160ff0219169083600381111561239757fe5b02179055507f9687deedb2ec361db89057dc6a602fb94263d090f6937fd20ef4f4bcf54de65633600c60009054906101000a900460ff166001604051808473ffffffffffffffffffffffffffffffffffffffff1673ffffffffffffffffffffffffffffffffffffffff16815260200183600581111561241257fe5b60ff1681526020018215151515815260200180602001828103825260108152602001807fe5b7b2e694afe4bb98e68abce98791200000000000000000000000000000000081525060200194505050505060405180910390a150612540565b7f9687deedb2ec361db89057dc6a602fb94263d090f6937fd20ef4f4bcf54de65633600c60009054906101000a900460ff166000604051808473ffffffffffffffffffffffffffffffffffffffff1673ffffffffffffffffffffffffffffffffffffffff1681526020018360058111156124e657fe5b60ff1681526020018215151515815260200180602001828103825260138152602001807fe694afe4bb98e68abce98791e8bf87e5b091200000000000000000000000000081525060200194505050505060405180910390a1505b50565b600a60009054906101000a900473ffffffffffffffffffffffffffffffffffffffff1673ffffffffffffffffffffffffffffffffffffffff163373ffffffffffffffffffffffffffffffffffffffff1614806125ec5750600960009054906101000a900473ffffffffffffffffffffffffffffffffffffffff1673ffffffffffffffffffffffffffffffffffffffff163373ffffffffffffffffffffffffffffffffffffffff16145b612641576040517f08c379a00000000000000000000000000000000000000000000000000000000081526004018080602001828103825260248152602001806130396024913960400191505060405180910390fd5b60006016600085815260200190815260200160002090506000601660006001870381526020019081526020016000209050600081600401905060008260080190506000826001015487039050600082600101548703905087866004016002018190555060005482028660040160000181905550818660040160030181905550868660080160020181905550600154810286600801600001819055508086600801600301819055508786600401600101819055508686600801600101819055507f01da4a4e855541f8b5940a422607cdeced915fa9057356292f09b5149e45672760125482604051808381526020018281526020019250505060405180910390a17f01da4a4e855541f8b5940a422607cdeced915fa9057356292f09b5149e4567278282604051808381526020018281526020019250505060405180910390a17f01da4a4e855541f8b5940a422607cdeced915fa9057356292f09b5149e45672786600801600001548760040160000154604051808381526020018281526020019250505060405180910390a160018660000160006101000a81548160ff021916908360038111156127ee57fe5b021790555085601660008b81526020019081526020016000206000820160009054906101000a900460ff168160000160006101000a81548160ff0219169083600381111561283857fe5b021790555060018201548160010155600282015481600201556003820154816003015560048201816004016000820154816000015560018201548160010155600282015481600201556003820154816003015550506008820181600801600082015481600001556001820154816001015560028201548160020155600382015481600301555050600c82015481600c0155600d82015481600d01559050506128df89612ee4565b505050505050505050565b6000806000806000806000600d54600e54600f54601254601354601454601554965096509650965096509650965090919293949596565b600a60009054906101000a900473ffffffffffffffffffffffffffffffffffffffff1673ffffffffffffffffffffffffffffffffffffffff163373ffffffffffffffffffffffffffffffffffffffff16146129e4576040517f08c379a00000000000000000000000000000000000000000000000000000000081526004018080602001828103825260188152602001807fe58faae69c89e688bfe4b89ce6898de883bde6938de4bd9c000000000000000081525060200191505060405180910390fd5b60008060058111156129f257fe5b600c60009054906101000a900460ff166005811115612a0d57fe5b14612a80576040517f08c379a00000000000000000000000000000000000000000000000000000000081526004018080602001828103825260158152602001807fe4b88de7aca6e59088e5bd93e5898de78ab6e68081000000000000000000000081525060200191505060405180910390fd5b600e543410612b905734600d600082825401925050819055506001600c60006101000a81548160ff02191690836005811115612ab857fe5b02179055507f9687deedb2ec361db89057dc6a602fb94263d090f6937fd20ef4f4bcf54de65633600c60009054906101000a900460ff166001604051808473ffffffffffffffffffffffffffffffffffffffff1673ffffffffffffffffffffffffffffffffffffffff168152602001836005811115612b3357fe5b60ff16815260200182151515158152602001806020018281038252600d8152602001807fe6bf80e6b4bbe68890e58a9f200000000000000000000000000000000000000081525060200194505050505060405180910390a1612c5f565b7f9687deedb2ec361db89057dc6a602fb94263d090f6937fd20ef4f4bcf54de65633600c60009054906101000a900460ff166000604051808473ffffffffffffffffffffffffffffffffffffffff1673ffffffffffffffffffffffffffffffffffffffff168152602001836005811115612c0657fe5b60ff16815260200182151515158152602001806020018281038252600c8152602001807fe6bf80e6b4bbe5a4b1e8b4a5000000000000000000000000000000000000000081525060200194505050505060405180910390a15b50565b60006012541415612d625760176016600060125481526020019081526020016000206000820160009054906101000a900460ff168160000160006101000a81548160ff02191690836003811115612cb557fe5b021790555060018201548160010155600282015481600201556003820154816003015560048201816004016000820154816000015560018201548160010155600282015481600201556003820154816003015550506008820181600801600082015481600001556001820154816001015560028201548160020155600382015481600301555050600c82015481600c0155600d82015481600d0155905050612d5d6000612ee4565b612ee2565b6000601760000160006101000a81548160ff02191690836003811115612d8457fe5b021790555060166000600160125403815260200190815260200160002060040160010154601760040160010181905550600060176004016002018190555060166000600160125403815260200190815260200160002060080160010154601760080160010181905550600060176008016002018190555060176016600060125481526020019081526020016000206000820160009054906101000a900460ff168160000160006101000a81548160ff02191690836003811115612e4357fe5b021790555060018201548160010155600282015481600201556003820154816003015560048201816004016000820154816000015560018201548160010155600282015481600201556003820154816003015550506008820181600801600082015481600001556001820154816001015560028201548160020155600382015481600301555050600c82015481600c0155600d82015481600d01559050505b565b60006016600083815260200190815260200160002060040160000154905060006016600084815260200190815260200160002060080160000154905060008183600454010190507f25e04c602f3746939c7e615856e6117a4b53a0ad3b7f085be3fbadd62500378a81848460405180848152602001838152602001828152602001935050505060405180910390a180601660008681526020019081526020016000206001018190555050505050565b828054600181600116156101000203166002900490600052602060002090601f016020900481019282601f10612fd457805160ff1916838001178555613002565b82800160010185558215613002579182015b82811115613001578251825591602001919060010190612fe6565b5b50905061300f9190613013565b5090565b61303591905b80821115613031576000816000905550600101613019565b5090565b9056fee58faae69c89e8afa5e59088e5908ce58f82e4b88ee88085e6898de883bde6938de4bd9ca165627a7a723058202e4021ead4b567b481760a02a9ed39def32dd3c8d4b0218f5a36ffb8fda9ead40029608060405234801561001057600080fd5b506116d4806100206000396000f3fe608060405234801561001057600080fd5b50600436106100a95760003560e01c8063b8a45cc311610071578063b8a45cc3146103cf578063bc6205e914610480578063c96f50411461049e578063e2f3182914610563578063ecd6bfd01461059b578063f2d942e614610645576100a9565b8063201f04ea146100ae5780634651cb1d146100f35780634f16af70146101c85780638d18ed60146102fc5780639fd9db8e1461031a575b600080fd5b6100dd600480360360208110156100c457600080fd5b81019080803560ff1690602001909291905050506106f6565b6040518082815260200191505060405180910390f35b61013f6004803603604081101561010957600080fd5b81019080803573ffffffffffffffffffffffffffffffffffffffff1690602001909291908035906020019092919050505061070e565b6040518080602001848152602001838152602001828103825285818151815260200191508051906020019080838360005b8381101561018b578082015181840152602081019050610170565b50505050905090810190601f1680156101b85780820380516001836020036101000a031916815260200191505b5094505050505060405180910390f35b610281600480360360208110156101de57600080fd5b81019080803590602001906401000000008111156101fb57600080fd5b82018360208201111561020d57600080fd5b8035906020019184600183028401116401000000008311171561022f57600080fd5b91908080601f016020809104026020016040519081016040528093929190818152602001838380828437600081840152601f19601f8201169050808301925050505050505091929192905050506107ea565b6040518080602001828103825283818151815260200191508051906020019080838360005b838110156102c15780820151818401526020810190506102a6565b50505050905090810190601f1680156102ee5780820380516001836020036101000a031916815260200191505b509250505060405180910390f35b61030461089c565b6040518082815260200191505060405180910390f35b6103466004803603602081101561033057600080fd5b81019080803590602001909291905050506108e6565b6040518080602001848152602001838152602001828103825285818151815260200191508051906020019080838360005b83811015610392578082015181840152602081019050610377565b50505050905090810190601f1680156103bf5780820380516001836020036101000a031916815260200191505b5094505050505060405180910390f35b610405600480360360408110156103e557600080fd5b810190808035906020019092919080359060200190929190505050610b30565b6040518080602001828103825283818151815260200191508051906020019080838360005b8381101561044557808201518184015260208101905061042a565b50505050905090810190601f1680156104725780820380516001836020036101000a031916815260200191505b509250505060405180910390f35b610488610b51565b6040518082815260200191505060405180910390f35b610561600480360360408110156104b457600080fd5b81019080803590602001906401000000008111156104d157600080fd5b8201836020820111156104e357600080fd5b8035906020019184600183028401116401000000008311171561050557600080fd5b91908080601f016020809104026020016040519081016040528093929190818152602001838380828437600081840152601f19601f82011690508083019250505050505050919291929080359060200190929190505050610bac565b005b6105996004803603604081101561057957600080fd5b810190808035906020019092919080359060200190929190505050610d02565b005b6105ca600480360360208110156105b157600080fd5b81019080803560ff169060200190929190505050611079565b6040518080602001828103825283818151815260200191508051906020019080838360005b8381101561060a5780820151818401526020810190506105ef565b50505050905090810190601f1680156106375780820380516001836020036101000a031916815260200191505b509250505060405180910390f35b61067b6004803603604081101561065b57600080fd5b810190808035906020019092919080359060200190929190505050611128565b6040518080602001828103825283818151815260200191508051906020019080838360005b838110156106bb5780820151818401526020810190506106a0565b50505050905090810190601f1680156106e85780820380516001836020036101000a031916815260200191505b509250505060405180910390f35b60008061070283611079565b51905080915050919050565b6002602052816000526040600020818154811061072757fe5b906000526020600020906003020160009150915050806000018054600181600116156101000203166002900480601f0160208091040260200160405190810160405280929190818152602001828054600181600116156101000203166002900480156107d45780601f106107a9576101008083540402835291602001916107d4565b820191906000526020600020905b8154815290600101906020018083116107b757829003601f168201915b5050505050908060010154908060020154905083565b60608082516040519080825280601f01601f1916602001820160405280156108215781602001600182028038833980820191505090505b50905060008090505b83518110156108925783818151811061083f57fe5b602001015160f81c60f81b82828151811061085657fe5b60200101907effffffffffffffffffffffffffffffffffffffffffffffffffffffffffffff1916908160001a905350808060010191505061082a565b5080915050919050565b6000600260003373ffffffffffffffffffffffffffffffffffffffff1673ffffffffffffffffffffffffffffffffffffffff16815260200190815260200160002080549050905090565b606060008083600260003373ffffffffffffffffffffffffffffffffffffffff1673ffffffffffffffffffffffffffffffffffffffff16815260200190815260200160002080549050116109a2576040517f08c379a000000000000000000000000000000000000000000000000000000000815260040180806020018281038252600c8152602001807fe695b0e7bb84e8b68ae7958c000000000000000000000000000000000000000081525060200191505060405180910390fd5b6060600260003373ffffffffffffffffffffffffffffffffffffffff1673ffffffffffffffffffffffffffffffffffffffff168152602001908152602001600020805480602002602001604051908101604052809291908181526020016000905b82821015610aeb5783829060005260206000209060030201604051806060016040529081600082018054600181600116156101000203166002900480601f016020809104026020016040519081016040528092919081815260200182805460018160011615610100020316600290048015610abf5780601f10610a9457610100808354040283529160200191610abf565b820191906000526020600020905b815481529060010190602001808311610aa257829003601f168201915b505050505081526020016001820154815260200160028201548152505081526020019060010190610a03565b505050509050610af96115e2565b818681518110610b0557fe5b6020026020010151905080600001518160200151826040015182925094509450945050509193909250565b606080610b45610b408585611128565b6107ea565b90508091505092915050565b60008060008090505b600180549050811015610ba457600060018281548110610b7657fe5b9060005260206000209060030201600101541415610b975781806001019250505b8080600101915050610b5a565b508091505090565b60016040518060600160405280848152602001838152602001600180549050815250908060018154018082558091505090600182039060005260206000209060030201600090919290919091506000820151816000019080519060200190610c15929190611603565b506020820151816001015560408201518160020155505050600260003373ffffffffffffffffffffffffffffffffffffffff1673ffffffffffffffffffffffffffffffffffffffff16815260200190815260200160002060405180606001604052808481526020018381526020016001808054905003815250908060018154018082558091505090600182039060005260206000209060030201600090919290919091506000820151816000019080519060200190610cd5929190611603565b50602082015181600101556040820151816002015550505060008081548092919060010191905055505050565b6000821480610d115750600182145b80610d1c5750600282145b80610d275750600382145b610d99576040517f08c379a000000000000000000000000000000000000000000000000000000000815260040180806020018281038252600c8152602001807fe697a0e6ada4e78ab6e68081000000000000000000000000000000000000000081525060200191505060405180910390fd5b80600260003373ffffffffffffffffffffffffffffffffffffffff1673ffffffffffffffffffffffffffffffffffffffff1681526020019081526020016000208054905011610e50576040517f08c379a000000000000000000000000000000000000000000000000000000000815260040180806020018281038252600d8152602001807fe695b0e7bb84e8b68ae7958c200000000000000000000000000000000000000081525060200191505060405180910390fd5b610e586115e2565b600260003373ffffffffffffffffffffffffffffffffffffffff1673ffffffffffffffffffffffffffffffffffffffff1681526020019081526020016000208281548110610ea257fe5b9060005260206000209060030201604051806060016040529081600082018054600181600116156101000203166002900480601f016020809104026020016040519081016040528092919081815260200182805460018160011615610100020316600290048015610f545780601f10610f2957610100808354040283529160200191610f54565b820191906000526020600020905b815481529060010190602001808311610f3757829003601f168201915b505050505081526020016001820154815260200160028201548152505090508060200151831415610fed576040517f08c379a000000000000000000000000000000000000000000000000000000000815260040180806020018281038252600c8152602001807fe697a0e6ada4e78ab6e68081000000000000000000000000000000000000000081525060200191505060405180910390fd5b82600260003373ffffffffffffffffffffffffffffffffffffffff1673ffffffffffffffffffffffffffffffffffffffff168152602001908152602001600020838154811061103857fe5b90600052602060002090600302016001018190555082600182604001518154811061105f57fe5b906000526020600020906003020160010181905550505050565b606060206040519080825280601f01601f1916602001820160405280156110af5781602001600182028038833980820191505090505b50905060008090505b60208110156111225780601f0360080260020a8360ff16816110d657fe5b0460f81b8282815181106110e657fe5b60200101907effffffffffffffffffffffffffffffffffffffffffffffffffffffffffffff1916908160001a90535080806001019150506110b8565b50919050565b60606000831015801561113b5750828210155b801561114957506000805410155b6111bb576040517f08c379a000000000000000000000000000000000000000000000000000000000815260040180806020018281038252600a8152602001807fe4bca0e58f82e4ba94200000000000000000000000000000000000000000000081525060200191505060405180910390fd5b6060806000546040519080825280602002602001820160405280156111f457816020015b60608152602001906001900390816111df5790505b509050600080905060008090505b60018054905081101561131d576001818154811061121c57fe5b90600052602060002090600302016000018054600181600116156101000203166002900480601f0160208091040260200160405190810160405280929190818152602001828054600181600116156101000203166002900480156112c15780601f10611296576101008083540402835291602001916112c1565b820191906000526020600020905b8154815290600101906020018083116112a457829003601f168201915b505050505093506000600182815481106112d757fe5b906000526020600020906003020160010154141561131057838383815181106112fc57fe5b602002602001018190525081806001019250505b8080600101915050611202565b50611329828787611334565b935050505092915050565b6060600080905060606000808690505b8581101561140f5787818151811061135857fe5b602002602001015192506000835190506000611373826106f6565b905080935060ff8460ff1614156113f2576040517f08c379a00000000000000000000000000000000000000000000000000000000081526004018080602001828103825260088152602001807f6c656e213d32353500000000000000000000000000000000000000000000000081525060200191505060405180910390fd5b84518460010160ff16018601955050508080600101915050611344565b5060008090506060846040519080825280601f01601f19166020018201604052801561144a5781602001600182028038833980820191505090505b50905060008890505b878110156115d25789818151811061146757fe5b602002602001015194506000855190506000611482826106f6565b90508095508560f81b84868151811061149757fe5b60200101907effffffffffffffffffffffffffffffffffffffffffffffffffffffffffffff1916908160001a905350848060010195505060008090505b8660ff1681101561154b57806001880360ff160360080260020a8851816114f757fe5b0460f81b85878151811061150757fe5b60200101907effffffffffffffffffffffffffffffffffffffffffffffffffffffffffffff1916908160001a905350858060010196505080806001019150506114d4565b5060008090505b87518110156115c25787818151811061156757fe5b602001015160f81c60f81b85878151811061157e57fe5b60200101907effffffffffffffffffffffffffffffffffffffffffffffffffffffffffffff1916908160001a90535085806001019650508080600101915050611552565b5050508080600101915050611453565b5080955050505050509392505050565b60405180606001604052806060815260200160008152602001600081525090565b828054600181600116156101000203166002900490600052602060002090601f016020900481019282601f1061164457805160ff1916838001178555611672565b82800160010185558215611672579182015b82811115611671578251825591602001919060010190611656565b5b50905061167f9190611683565b5090565b6116a591905b808211156116a1576000816000905550600101611689565b5090565b9056fea165627a7a7230582085d79dda34aed935ce2d77145cdf31392ee8606584c8b6abba3033b172c2d06b0029a165627a7a72305820cb70845b2dc5d887c4192aa5270d549b7b0d379063d8e80869924368d76995920029",
  "source": "pragma solidity >=0.4.21 <0.7.0;\nimport \"./ContractDetail.sol\";\nimport \"./Lendhouse.sol\";\ncontract CreateContract{\n   /* struct ContractDetail{\n        uint waterFee;//\n        uint electricityFee;//\n        uint waterMeter;//\n        uint electricityMeter;//\n        uint rentFee; //\n        uint rentTime; //\n        uint256 startTime; //\n        uint256 endTime; //\n        uint totalFee;//\n        address TenantPublickey;//\n        bytes addInfo;\n    }*/\n    uint a=10;\n    function set()payable public {\n     LendHouse  contractDetail =  new LendHouse();\n     }\n      function set2()payable public {\n           //ContractDetail  contractDetail =  new ContractDetail(1,1,1,1,1,1,1,1,1,0x7dF1fD774211Bc6CBA38b4f9ac16d3592d6258e0,0x7dF1fD774211Bc6CBA38b4f9ac16d3592d6258e0,\"d4967590eb024589dfb6b9e48a576eb49ebc19d764b0d1d67dc21975e7258e97\");\n            ContractDetail  contractDetail =  new ContractDetail();\n          }\n     function test()payable public {\n          a=11;\n          }\n               function test2()pure public returns(uint){\n                      return 10;\n                      }\n    event ContractDetailEvent(address curAd,bool isture,address contractAdd);\n\n    mapping(address =>ContractDetail[])public ContractDetailMap;\n      function getSmartContractNum() public view returns(uint){\n            uint length;\n            for(uint i=0;i<ContractDetailMap[msg.sender].length;i++){\n                length++;\n            }\n            return length;\n          }\n    //mapping(uint=>RentPamentInfo[]) public rentPaymentInfoMapping;\n    function createSmartContract(uint _warterFee, uint _electricityFee,uint _waterMeter,uint _electricityMeter,uint _rentFee, uint _rentTerm, uint256 _startTime, uint256 _endTime,uint _PledgeFee,address _TenantPublickey ,bytes memory _addInfo) payable public {\n           address currentUserAdd=msg.sender;\n           if(!(_warterFee>0&&_electricityFee>0&&_waterMeter>0&&_electricityMeter>0&&_rentFee>0&&_rentTerm>0&&_startTime>0&&_endTime>0&&_PledgeFee>0&&_TenantPublickey!=address(0)&&_addInfo.length>0)){\n               emit ContractDetailEvent(currentUserAdd,false,address(0));\n           }\n           ContractDetail  contractDetail =  new ContractDetail();\n           contractDetail.addHouseInfo(_warterFee,_electricityFee,_waterMeter,_electricityMeter,_rentFee,_rentTerm,_startTime,_endTime,_PledgeFee,_TenantPublickey,currentUserAdd,_addInfo);\n           ContractDetailMap[currentUserAdd].push(contractDetail);\n           ContractDetailMap[_TenantPublickey].push(contractDetail);\n           emit ContractDetailEvent(currentUserAdd,true,address(contractDetail));\n       }\n}\n",
  "sourcePath": "C:/Users/1/test/contracts/CreateContract.sol",
  "compiler": {
    "name": "solc",
    "version": "0.5.8+commit.23d335f2.Emscripten.clang"
  },
  "schemaVersion": "3.0.11",
  "updatedAt": "2020-06-05T03:34:54.684Z",
  "devdoc": {
    "methods": {}
  },
  "userdoc": {
    "methods": {}
  }
}