{
  "contractName": "LendHouse",
  "abi": [
    {
      "constant": true,
      "inputs": [
        {
          "name": "",
          "type": "address"
        },
        {
          "name": "",
          "type": "uint256"
        }
      ],
      "name": "HouseInfoMap",
      "outputs": [
        {
          "name": "HouseHash",
          "type": "string"
        },
        {
          "name": "Status",
          "type": "uint256"
        },
        {
          "name": "HouseIndex",
          "type": "uint256"
        }
      ],
      "payable": false,
      "stateMutability": "view",
      "type": "function"
    },
    {
      "constant": false,
      "inputs": [
        {
          "name": "_start",
          "type": "uint256"
        },
        {
          "name": "_to",
          "type": "uint256"
        }
      ],
      "name": "getHashDataByRange",
      "outputs": [
        {
          "name": "",
          "type": "bytes"
        }
      ],
      "payable": false,
      "stateMutability": "nonpayable",
      "type": "function"
    },
    {
      "constant": true,
      "inputs": [],
      "name": "getHouseNum",
      "outputs": [
        {
          "name": "",
          "type": "uint256"
        }
      ],
      "payable": false,
      "stateMutability": "view",
      "type": "function"
    },
    {
      "constant": true,
      "inputs": [],
      "name": "getShowStatusNum",
      "outputs": [
        {
          "name": "",
          "type": "uint256"
        }
      ],
      "payable": false,
      "stateMutability": "view",
      "type": "function"
    },
    {
      "constant": false,
      "inputs": [
        {
          "name": "hash",
          "type": "string"
        },
        {
          "name": "status",
          "type": "uint256"
        }
      ],
      "name": "addHash",
      "outputs": [],
      "payable": false,
      "stateMutability": "nonpayable",
      "type": "function"
    },
    {
      "constant": true,
      "inputs": [
        {
          "name": "targetIndex",
          "type": "uint256"
        }
      ],
      "name": "getHouseInfoArrIndex",
      "outputs": [
        {
          "name": "",
          "type": "string"
        },
        {
          "name": "",
          "type": "uint256"
        },
        {
          "name": "",
          "type": "uint256"
        }
      ],
      "payable": false,
      "stateMutability": "view",
      "type": "function"
    },
    {
      "constant": false,
      "inputs": [
        {
          "name": "status",
          "type": "uint256"
        },
        {
          "name": "targetIndex",
          "type": "uint256"
        }
      ],
      "name": "updateStatus",
      "outputs": [],
      "payable": false,
      "stateMutability": "nonpayable",
      "type": "function"
    },
    {
      "constant": false,
      "inputs": [
        {
          "name": "_start",
          "type": "uint256"
        },
        {
          "name": "_to",
          "type": "uint256"
        }
      ],
      "name": "toString",
      "outputs": [
        {
          "name": "",
          "type": "string"
        }
      ],
      "payable": false,
      "stateMutability": "nonpayable",
      "type": "function"
    },
    {
      "constant": false,
      "inputs": [
        {
          "name": "b",
          "type": "bytes"
        }
      ],
      "name": "byte32ToString",
      "outputs": [
        {
          "name": "",
          "type": "string"
        }
      ],
      "payable": false,
      "stateMutability": "nonpayable",
      "type": "function"
    },
    {
      "constant": false,
      "inputs": [
        {
          "name": "elemlength",
          "type": "uint8"
        }
      ],
      "name": "lengthBytes",
      "outputs": [
        {
          "name": "",
          "type": "uint256"
        }
      ],
      "payable": false,
      "stateMutability": "nonpayable",
      "type": "function"
    },
    {
      "constant": false,
      "inputs": [
        {
          "name": "x",
          "type": "uint8"
        }
      ],
      "name": "toBytes",
      "outputs": [
        {
          "name": "b",
          "type": "bytes"
        }
      ],
      "payable": false,
      "stateMutability": "nonpayable",
      "type": "function"
    }
  ],
  "bytecode": "0x608060405234801561001057600080fd5b506116d4806100206000396000f3fe608060405234801561001057600080fd5b50600436106100a95760003560e01c8063b8a45cc311610071578063b8a45cc3146103cf578063bc6205e914610480578063c96f50411461049e578063e2f3182914610563578063ecd6bfd01461059b578063f2d942e614610645576100a9565b8063201f04ea146100ae5780634651cb1d146100f35780634f16af70146101c85780638d18ed60146102fc5780639fd9db8e1461031a575b600080fd5b6100dd600480360360208110156100c457600080fd5b81019080803560ff1690602001909291905050506106f6565b6040518082815260200191505060405180910390f35b61013f6004803603604081101561010957600080fd5b81019080803573ffffffffffffffffffffffffffffffffffffffff1690602001909291908035906020019092919050505061070e565b6040518080602001848152602001838152602001828103825285818151815260200191508051906020019080838360005b8381101561018b578082015181840152602081019050610170565b50505050905090810190601f1680156101b85780820380516001836020036101000a031916815260200191505b5094505050505060405180910390f35b610281600480360360208110156101de57600080fd5b81019080803590602001906401000000008111156101fb57600080fd5b82018360208201111561020d57600080fd5b8035906020019184600183028401116401000000008311171561022f57600080fd5b91908080601f016020809104026020016040519081016040528093929190818152602001838380828437600081840152601f19601f8201169050808301925050505050505091929192905050506107ea565b6040518080602001828103825283818151815260200191508051906020019080838360005b838110156102c15780820151818401526020810190506102a6565b50505050905090810190601f1680156102ee5780820380516001836020036101000a031916815260200191505b509250505060405180910390f35b61030461089c565b6040518082815260200191505060405180910390f35b6103466004803603602081101561033057600080fd5b81019080803590602001909291905050506108e6565b6040518080602001848152602001838152602001828103825285818151815260200191508051906020019080838360005b83811015610392578082015181840152602081019050610377565b50505050905090810190601f1680156103bf5780820380516001836020036101000a031916815260200191505b5094505050505060405180910390f35b610405600480360360408110156103e557600080fd5b810190808035906020019092919080359060200190929190505050610b30565b6040518080602001828103825283818151815260200191508051906020019080838360005b8381101561044557808201518184015260208101905061042a565b50505050905090810190601f1680156104725780820380516001836020036101000a031916815260200191505b509250505060405180910390f35b610488610b51565b6040518082815260200191505060405180910390f35b610561600480360360408110156104b457600080fd5b81019080803590602001906401000000008111156104d157600080fd5b8201836020820111156104e357600080fd5b8035906020019184600183028401116401000000008311171561050557600080fd5b91908080601f016020809104026020016040519081016040528093929190818152602001838380828437600081840152601f19601f82011690508083019250505050505050919291929080359060200190929190505050610bac565b005b6105996004803603604081101561057957600080fd5b810190808035906020019092919080359060200190929190505050610d02565b005b6105ca600480360360208110156105b157600080fd5b81019080803560ff169060200190929190505050611079565b6040518080602001828103825283818151815260200191508051906020019080838360005b8381101561060a5780820151818401526020810190506105ef565b50505050905090810190601f1680156106375780820380516001836020036101000a031916815260200191505b509250505060405180910390f35b61067b6004803603604081101561065b57600080fd5b810190808035906020019092919080359060200190929190505050611128565b6040518080602001828103825283818151815260200191508051906020019080838360005b838110156106bb5780820151818401526020810190506106a0565b50505050905090810190601f1680156106e85780820380516001836020036101000a031916815260200191505b509250505060405180910390f35b60008061070283611079565b51905080915050919050565b6002602052816000526040600020818154811061072757fe5b906000526020600020906003020160009150915050806000018054600181600116156101000203166002900480601f0160208091040260200160405190810160405280929190818152602001828054600181600116156101000203166002900480156107d45780601f106107a9576101008083540402835291602001916107d4565b820191906000526020600020905b8154815290600101906020018083116107b757829003601f168201915b5050505050908060010154908060020154905083565b60608082516040519080825280601f01601f1916602001820160405280156108215781602001600182028038833980820191505090505b50905060008090505b83518110156108925783818151811061083f57fe5b602001015160f81c60f81b82828151811061085657fe5b60200101907effffffffffffffffffffffffffffffffffffffffffffffffffffffffffffff1916908160001a905350808060010191505061082a565b5080915050919050565b6000600260003373ffffffffffffffffffffffffffffffffffffffff1673ffffffffffffffffffffffffffffffffffffffff16815260200190815260200160002080549050905090565b606060008083600260003373ffffffffffffffffffffffffffffffffffffffff1673ffffffffffffffffffffffffffffffffffffffff16815260200190815260200160002080549050116109a2576040517f08c379a000000000000000000000000000000000000000000000000000000000815260040180806020018281038252600c8152602001807fe695b0e7bb84e8b68ae7958c000000000000000000000000000000000000000081525060200191505060405180910390fd5b6060600260003373ffffffffffffffffffffffffffffffffffffffff1673ffffffffffffffffffffffffffffffffffffffff168152602001908152602001600020805480602002602001604051908101604052809291908181526020016000905b82821015610aeb5783829060005260206000209060030201604051806060016040529081600082018054600181600116156101000203166002900480601f016020809104026020016040519081016040528092919081815260200182805460018160011615610100020316600290048015610abf5780601f10610a9457610100808354040283529160200191610abf565b820191906000526020600020905b815481529060010190602001808311610aa257829003601f168201915b505050505081526020016001820154815260200160028201548152505081526020019060010190610a03565b505050509050610af96115e2565b818681518110610b0557fe5b6020026020010151905080600001518160200151826040015182925094509450945050509193909250565b606080610b45610b408585611128565b6107ea565b90508091505092915050565b60008060008090505b600180549050811015610ba457600060018281548110610b7657fe5b9060005260206000209060030201600101541415610b975781806001019250505b8080600101915050610b5a565b508091505090565b60016040518060600160405280848152602001838152602001600180549050815250908060018154018082558091505090600182039060005260206000209060030201600090919290919091506000820151816000019080519060200190610c15929190611603565b506020820151816001015560408201518160020155505050600260003373ffffffffffffffffffffffffffffffffffffffff1673ffffffffffffffffffffffffffffffffffffffff16815260200190815260200160002060405180606001604052808481526020018381526020016001808054905003815250908060018154018082558091505090600182039060005260206000209060030201600090919290919091506000820151816000019080519060200190610cd5929190611603565b50602082015181600101556040820151816002015550505060008081548092919060010191905055505050565b6000821480610d115750600182145b80610d1c5750600282145b80610d275750600382145b610d99576040517f08c379a000000000000000000000000000000000000000000000000000000000815260040180806020018281038252600c8152602001807fe697a0e6ada4e78ab6e68081000000000000000000000000000000000000000081525060200191505060405180910390fd5b80600260003373ffffffffffffffffffffffffffffffffffffffff1673ffffffffffffffffffffffffffffffffffffffff1681526020019081526020016000208054905011610e50576040517f08c379a000000000000000000000000000000000000000000000000000000000815260040180806020018281038252600d8152602001807fe695b0e7bb84e8b68ae7958c200000000000000000000000000000000000000081525060200191505060405180910390fd5b610e586115e2565b600260003373ffffffffffffffffffffffffffffffffffffffff1673ffffffffffffffffffffffffffffffffffffffff1681526020019081526020016000208281548110610ea257fe5b9060005260206000209060030201604051806060016040529081600082018054600181600116156101000203166002900480601f016020809104026020016040519081016040528092919081815260200182805460018160011615610100020316600290048015610f545780601f10610f2957610100808354040283529160200191610f54565b820191906000526020600020905b815481529060010190602001808311610f3757829003601f168201915b505050505081526020016001820154815260200160028201548152505090508060200151831415610fed576040517f08c379a000000000000000000000000000000000000000000000000000000000815260040180806020018281038252600c8152602001807fe697a0e6ada4e78ab6e68081000000000000000000000000000000000000000081525060200191505060405180910390fd5b82600260003373ffffffffffffffffffffffffffffffffffffffff1673ffffffffffffffffffffffffffffffffffffffff168152602001908152602001600020838154811061103857fe5b90600052602060002090600302016001018190555082600182604001518154811061105f57fe5b906000526020600020906003020160010181905550505050565b606060206040519080825280601f01601f1916602001820160405280156110af5781602001600182028038833980820191505090505b50905060008090505b60208110156111225780601f0360080260020a8360ff16816110d657fe5b0460f81b8282815181106110e657fe5b60200101907effffffffffffffffffffffffffffffffffffffffffffffffffffffffffffff1916908160001a90535080806001019150506110b8565b50919050565b60606000831015801561113b5750828210155b801561114957506000805410155b6111bb576040517f08c379a000000000000000000000000000000000000000000000000000000000815260040180806020018281038252600a8152602001807fe4bca0e58f82e4ba94200000000000000000000000000000000000000000000081525060200191505060405180910390fd5b6060806000546040519080825280602002602001820160405280156111f457816020015b60608152602001906001900390816111df5790505b509050600080905060008090505b60018054905081101561131d576001818154811061121c57fe5b90600052602060002090600302016000018054600181600116156101000203166002900480601f0160208091040260200160405190810160405280929190818152602001828054600181600116156101000203166002900480156112c15780601f10611296576101008083540402835291602001916112c1565b820191906000526020600020905b8154815290600101906020018083116112a457829003601f168201915b505050505093506000600182815481106112d757fe5b906000526020600020906003020160010154141561131057838383815181106112fc57fe5b602002602001018190525081806001019250505b8080600101915050611202565b50611329828787611334565b935050505092915050565b6060600080905060606000808690505b8581101561140f5787818151811061135857fe5b602002602001015192506000835190506000611373826106f6565b905080935060ff8460ff1614156113f2576040517f08c379a00000000000000000000000000000000000000000000000000000000081526004018080602001828103825260088152602001807f6c656e213d32353500000000000000000000000000000000000000000000000081525060200191505060405180910390fd5b84518460010160ff16018601955050508080600101915050611344565b5060008090506060846040519080825280601f01601f19166020018201604052801561144a5781602001600182028038833980820191505090505b50905060008890505b878110156115d25789818151811061146757fe5b602002602001015194506000855190506000611482826106f6565b90508095508560f81b84868151811061149757fe5b60200101907effffffffffffffffffffffffffffffffffffffffffffffffffffffffffffff1916908160001a905350848060010195505060008090505b8660ff1681101561154b57806001880360ff160360080260020a8851816114f757fe5b0460f81b85878151811061150757fe5b60200101907effffffffffffffffffffffffffffffffffffffffffffffffffffffffffffff1916908160001a905350858060010196505080806001019150506114d4565b5060008090505b87518110156115c25787818151811061156757fe5b602001015160f81c60f81b85878151811061157e57fe5b60200101907effffffffffffffffffffffffffffffffffffffffffffffffffffffffffffff1916908160001a90535085806001019650508080600101915050611552565b5050508080600101915050611453565b5080955050505050509392505050565b60405180606001604052806060815260200160008152602001600081525090565b828054600181600116156101000203166002900490600052602060002090601f016020900481019282601f1061164457805160ff1916838001178555611672565b82800160010185558215611672579182015b82811115611671578251825591602001919060010190611656565b5b50905061167f9190611683565b5090565b6116a591905b808211156116a1576000816000905550600101611689565b5090565b9056fea165627a7a7230582085d79dda34aed935ce2d77145cdf31392ee8606584c8b6abba3033b172c2d06b0029",
  "source": "pragma solidity >=0.4.21 <0.7.0;\r\n\r\ncontract LendHouse {\r\n /* address Owner;//卖方\r\n  address Customer;//买方\r\n  string Housename;//房屋名字\r\n  uint Houseprice;//价格  */\r\n  /*\r\n  struct house{\r\n        address Owner;//\r\n        address Customer;\r\n        string Housename;\r\n        uint Houseprice;\r\n  }*/\r\n\r\n // house  [] public houselist;\r\n  struct HouseInfo{\r\n      string HouseHash;\r\n      uint Status;\r\n      uint HouseIndex;\r\n  }\r\n  uint  HouseInfoCount;//所有房源数量\r\n  HouseInfo [] HouseInfoArr;//存储house结构的数组集合cun'chu存储fanfang'zi房子suo'you房子所有 xin'x\r\n  mapping(address=>HouseInfo[])  public  HouseInfoMap;// 将根据键（房东的地址）值／(HashlnfoArrQ    1       `Q.存储结构的数组集合） 对存储房东自己的 房源\r\n  //house houseinfo= house(Owner,Customer,Housename,Houseprice);\r\n\r\n/* function setInfo(address owner,address customer, string housename,uint houseprice)public {\r\n      houselist.push(house(owner,customer,housename,houseprice));\r\n  }*/\r\n/*  function searchOwner() pure public  returns( string memory){\r\n      uint i=0;\r\n      string memory allAddress;\r\n      for(i;i< HouseInfoMap[msg.sender].length;i++){\r\n      allAddress=allAddress+','+HouseInfoMap[msg.sender][i];\r\n      }\r\n  }*/\r\n    function getHashDataByRange(uint _start, uint _to) public  returns(bytes memory){\r\n        require(_start>=0&&_to>=_start&&HouseInfoCount>=0,\"传参五 \");\r\n        string memory hash;\r\n        string [] memory hashArr= new string[](HouseInfoCount);\r\n        uint _int =0;\r\n        for(uint256 i=0;i<HouseInfoArr.length;i++){\r\n            hash=HouseInfoArr[i].HouseHash;\r\n            if(HouseInfoArr[i].Status==0)\r\n            {\r\n                 hashArr[_int]=hash;\r\n                 _int ++;\r\n            }\r\n        }\r\n        return getAsBytes(hashArr,_start,_to);\r\n    }\r\n  function getHouseNum() public view returns(uint){\r\n   return HouseInfoMap[msg.sender].length;\r\n    }\r\n    function getShowStatusNum() public view returns(uint){\r\n        uint length;\r\n        for(uint i=0;i<HouseInfoArr.length;i++){\r\n            if(HouseInfoArr[i].Status==0)\r\n            length++;\r\n        }\r\n   return length;\r\n    }\r\n  function addHash(string memory hash,uint status) public{//房主添加房源\r\n        HouseInfoArr.push(HouseInfo(hash,status,HouseInfoArr.length));\r\n        HouseInfoMap[msg.sender].push(HouseInfo(hash,status,HouseInfoArr.length-1));\r\n        HouseInfoCount++;\r\n  }\r\n  function getHouseInfoArrIndex(uint targetIndex) public view returns(string memory,uint,uint){//房主查看个人房源\r\n      require(HouseInfoMap[msg.sender].length>targetIndex,\"数组越界\");\r\n      HouseInfo [] memory TargetHasharr=  HouseInfoMap[msg.sender];\r\n      HouseInfo memory TargetHouseInfo= TargetHasharr[targetIndex];\r\n      return(TargetHouseInfo.HouseHash,TargetHouseInfo.Status,TargetHouseInfo.HouseIndex);\r\n  }\r\n  function updateStatus(uint status,uint targetIndex) public {//房主修改房源\r\n      require(status==0||status==1||status==2||status==3,\"无此状态\");\r\n      require(HouseInfoMap[msg.sender].length>targetIndex,\"数组越界 \");\r\n       HouseInfo memory TargetHouseInfo= HouseInfoMap[msg.sender][targetIndex];\r\n        require(status!=TargetHouseInfo.Status,\"无此状态\");\r\n        HouseInfoMap[msg.sender][targetIndex].Status=status;\r\n        HouseInfoArr[TargetHouseInfo.HouseIndex].Status=status;\r\n  }\r\n /* function getAsBytes(string [] memory _arr ,uint256 _from,uint256 _to) internal pure returns ( bytes memory){\r\n     string=\r\n  }*/\r\n  function toString(uint _start, uint _to)  public  returns(string memory){\r\n      string memory test=byte32ToString(getHashDataByRange( _start,  _to));\r\n      return test;\r\n  }\r\n\r\n   function byte32ToString(bytes memory b) public returns (string memory) {\r\n\r\n       bytes memory names = new bytes(b.length);\r\n\r\n       for(uint i = 0; i < b.length; i++) {\r\n\r\n           names[i] = b[i];\r\n       }\r\n\r\n       return string(names);\r\n   }\r\n\r\n  function getAsBytes(string [] memory _arr ,uint256 _from,uint256 _to) internal  returns ( bytes memory){\r\n      uint256 bytesSize =0;\r\n      bytes memory elem;\r\n      uint8 len;\r\n      for(uint256 a=_from;a<_to;a++){\r\n          elem = bytes(_arr[a]);\r\n          uint8 elemlength=uint8(elem.length);\r\n          uint len8= lengthBytes(elemlength);\r\n          len=uint8(len8);\r\n          require(len!=255,\"len!=255\");\r\n          bytesSize +=1+len+elem.length;\r\n      }\r\n      uint256 counter=0;\r\n      bytes memory b = new bytes(bytesSize);\r\n      for(uint256 x= _from;x<_to;x++)\r\n      {\r\n          elem= bytes(_arr[x]);\r\n           uint8 elemlength=uint8(elem.length);\r\n          uint len8= lengthBytes(elemlength);\r\n          len=uint8(len8);\r\n          b[counter]=byte(len);\r\n          counter++;\r\n          for(uint y=0;y<len;y++){\r\n              b[counter]=byte(uint8(elem.length/(2**(8*(len-1-y)))));\r\n              counter++;\r\n          }\r\n          for(uint z=0;z<elem.length;z++){\r\n              b[counter]=elem[z];\r\n              counter++;\r\n          }\r\n      }\r\n      return b;\r\n  }\r\n  function lengthBytes(uint8 elemlength) public returns(uint){\r\n      uint length=(toBytes(elemlength)).length;\r\n      return length;\r\n  }\r\n    function toBytes(uint8 x) public  returns (bytes memory b) {\r\n        b = new bytes(32);\r\n        for (uint i = 0; i < 32; i++) {\r\n            b[i] = byte(uint8(x / (2**(8*(31 - i)))));\r\n        }\r\n    }\r\n\r\n}\r\n",
  "sourcePath": "C:\\Users\\1\\test\\contracts\\Lendhouse.sol",
  "compiler": {
    "name": "solc",
    "version": "0.5.8+commit.23d335f2.Emscripten.clang"
  },
  "schemaVersion": "3.0.11",
  "updatedAt": "2020-06-05T03:34:55.168Z",
  "devdoc": {
    "methods": {}
  },
  "userdoc": {
    "methods": {}
  }
}